S01E000073696D706C655F627574746F6E5F626172656D6574616C2E73333745
S113000000100020510400004D0400004D040000C5
S11300104D0400004D0400004D0400004D04000098
S11300204D0400004D0400004D0400004D04000088
S11300304D0400004D0400004D0400004D04000078
S11300404D0400004D0400004D0400004D04000068
S11300504D0400004D0400004D0400004D04000058
S11300604D0400004D040000C50900004D040000CB
S11300704D0400004D0400004D0400004D04000038
S11300804D0400004D040000E10900004D0400008F
S11300904D0400004D0400004D0400004D04000018
S11300A04D0400004D0400004D0400004D04000008
S11300B04D0400004D0400004D040000F93100001F
S11300C04D0400004D0400004D0400004D040000E8
S11300D04D0400004D0400004D0400004D040000D8
S11300E04D0400004D04000010B5054C237833B9CD
S11300F0044B13B10448AFF300800123237010BDF7
S1130100A410002000000000903C000008B5034B40
S11301101BB103490348AFF3008008BD0000000091
S1130120A8100020903C0000A3F5803A704700BF5F
S1130130174B002B08BF134B9D46FFF7F5FF00211B
S11301408B460F461348144A121A03F07FFA0E4BDB
S1130150002B00D098470D4B002B00D0984700206F
S1130160002104000D000D48002802D00C48AFF314
S1130170008003F047FA2000290000F017F803F08C
S11301802DFA00BF0000080000000000000000007D
S113019000100020A41000204413002000000000E0
S11301A00000000000F00EB800F00DB808B503F030
S11301B047F8FFF7F7FF03F050F8FFF7F5FF02F0F9
S11301C03BFBF8E77047704710B5044600F0CEF9E2
S11301D0012807D1044B9C4204D1BDE810400348D8
S11301E000F094BA10BD00BF8036000098360000BD
S11301F000F084B808B50421112001F063F809481F
S1130200012100F09BFC0848022101F05BF807483B
S1130210022101F057F80648022101F053F80020AA
S113022008BD00BF30053E0002001E000300200090
S11302300500240008B5114B01225A641A6842F4DF
S113024080721A600E4AD2F8A43143F4F843C2F81B
S1130250A43102F0BBF900F069F802F049F902F0A8
S11302606BF902F09FF9FFF7C5FF02F057F900F0B0
S11302704FF8BDE8084002F079BA00BF00000E4014
S113028000300E4008B500F047FB00F029F8BDE847
S1130290084000F02BB808B500F02EF8BDE808407F
S11302A002F092BD704770477047704770477047BF
S11302B0012070470120704708B5FFF7F9FF08BD1A
S11302C010B502F0A1FB0446FFF7F4FF042804D0A4
S11302D0022808BF0124204610BD0024FBE70000CB
S11302E0014800F03EB900BF80360000014800F02C
S11302F00ABA00BF983600000F20704708B50023E3
S113030018460422052101F07DFF002008BD0000ED
S113031008B50548012100F011FCFFF769FFBDE8AD
S1130320084000F015B800BF00250A00014801216B
S113033000F004BC00250A00014B1022DA6070476B
S113034000A00046014B1022DA60704700A0004470
S113035070B5384D384E0FCD88B001AC0FC495E858
S1130360070084E80700354C3548012100F0E6FB1E
S11303703046012100F0E2FB0125324B039301A931
S113038020468DF8125002F051F82B460422062123
S1130390022001F037FF2A4600230721022001F042
S11303A031FF2B4604220821022001F02BFF0422F6
S11303B011462B46002001F025FF234BA3670B2396
S11303C063674FF4487002F053FF1420FFF7BAFF3D
S11303D002F04EFF2320FFF7AFFF02F049FFB921DF
S11303E02046FFF7AFFF02F079F8FFF7A5FF0023DF
S11303F01A460621022001F005FF00231A460721B0
S1130400022001F0FFFE2B4600220821022001F009
S1130410F9FE002210462B46042101F0F3FE20468B
S113042001F0D2FF0021A1673046616700F086FB2E
S113043008B070BDB0360000004204000004014062
S113044000250A0000127A000B0B000BFEE70000E7
S113045008B500F069F8064B0649074A8B4201D3F8
S1130460FFF766FE52F8040B43F8040BF6E700BFEF
S113047000100020A4100020983C000000487047A1
S113048000F04902104AD2F8943003F00703023B0B
S1130490032B13D8DFE803F00C14020E0B4B1B687C
S11304A0D2F80001C0F304200130B3FBF0F0704730
S11304B0074BF4E7074B1B685B08F1E7054BEEE7D6
S11304C04FF40043ECE700BF00400E40181000203A
S11304D0101000201410002008B5FFF7D3FF054BBF
S11304E0D3F80831C3F308230133B0FBF3F0024B14
S11304F0186008BD00400E400C100020014B186825
S1130500704700BF10100020054B1860054BD3F84E
S1130510943003F00703022B01D1FFF7DDBF7047CE
S11305201010002000400E40044B054A9A60D3F896
S1130530882042F47002C3F88820704700ED00E080
S1130540000000004FF4004070474FF47A70704789
S1130550014B1868704700BF181000200023036087
S11305607047436803B1184722207047436903B1B9
S11305701847FF207047000038B50D460446C8B13F
S1130580012819D002281AD003281BD0052803D12A
S1130590FF23EB40DB0704D40C4840F2CD3100F0DC
S11305A02DFA30200A494443214405EBC105AD002E
S11305B0286838BD3F23ECE74FF47843E9E74FF46C
S11305C07C63E6E74FF47E43E3E700BFCC360000EC
S11305D01CA0100238B50D682B78022B0C460CD0E9
S11305E069792879FFF7C8FFB0FA80F040092870CC
S11305F02046BDE83840FFF7E7BD38BD37B504688D
S113060001210546164800F099FA00236179207902
S1130610012201F0F7FD61792079FFF7ADFFB0FA0F
S113062080F35B092370A379022B15D100F074F9D0
S11306302A460C49607900F099F9FF28054603D150
S113064009484F2100F0DAF90123617920792A461B
S1130650CDE9003301F05AFD002003B030BD00BFE6
S113066000250A00D5050000233700000368187828
S1130670704710B504682378022B15D0617920796E
S1130680FFF77AFFA279012A15D10038638818BFD1
S1130690012040EA430363F03F039BB24FF6E0714D
S11306A08B4202D12270638010BD4FF6DF729342F9
S11306B0F9D10022F6E7002AF6D1B0FA80F0400919
S11306C02070F1E703681A78022A03D100225A80C5
S11306D0FFF794BF704713B504682378022B10D03A
S11306E0A379022B0BD16079002100F02DF96279F6
S11306F020790023CDE90033114601F007FD0223E0
S1130700237002B010BDD0E90003184703690068E4
S11307101847000038B50D460446C0B1012818D06A
S1130720022819D003281AD0052803D1FF23EB404F
S1130730DB0704D40B484FF47F7100F05FF93020DD
S1130740094B0121444301FA05F51D5138BD3F23EE
S1130750EDE74FF47843EAE74FF47C63E7E74FF4BF
S11307607E43E4E7CC3600000CA0004438B50D46C7
S11307700446C0B1012818D0022819D003281AD081
S1130780052803D1FF23EB40DB0704D40B4840F2D8
S11307902B4100F033F93020094B0121444301FA85
S11307A005F51D5138BD3F23EDE74FF47843EAE7E3
S11307B04FF47C63E7E74FF47E43E4E7CC36000074
S11307C00CA0004610B501210446094800F0B6F912
S11307D00848012100F0B2F9A37820786178B3FACF
S11307E083F35B09042201F00DFD002010BD00BF5E
S11307F04041050000250A000346007859789B789B
S11308000BB9FFF787BFFFF7B1BF034600785978EC
S11308109B780BB9FFF7AABFFFF77CBF38B5047804
S11308204578D4B1012C1AD0022C1BD0032C1CD037
S1130830052C03D1FF23EB40DB0704D40C4840F222
S1130840464100F0DBF83022544304F18044012394
S113085004F52044AB40A36138BD3F23EBE74FF4DC
S11308607843E8E74FF47C63E5E74FF47E43E2E73F
S1130870CC36000070B5047845780646FCB1012CEE
S11308801FD0022C20D0032C21D0052C03D1FF2310
S1130890EB40DB0704D40F4840F2164100F0AEF8F9
S11308A030235C430C4B234405EBC305AD00B37804
S11308B02868C0B213B9B0FA80F0400970BD3F2374
S11308C0E6E74FF47843E3E74FF47C63E0E74FF463
S11308D07E43DDE7CC3600000CA0100270B50D4E4F
S11308E00446012504B970BD94FAA4F3B3FA83F362
S11308F006EB031105FA03F224EA02044A68002A0B
S1130900F0D0D8B20B7B13B189689047EAE79047DF
S1130910E8E700BFC010002008B5122000F074FE04
S113092028B1084B4FF48022C3F880211A600A20B2
S113093000F06AFE28B1034B4FF48062C3F88021B3
S11309401A6008BD00E100E038B505460C4600F029
S113095052FE054B03EB051300225C601A73BDE8DD
S1130960384000F04EBE00BFC0100020F8B5054668
S11309700F46164600F03FFE104B05F0FC02D3F87C
S113098028140023EC1804F00304144321FA04FC93
S11309901CF0010F07D00133042BF3D1FF2400F026
S11309A030FE2046F8BDFF2CF9D0054B03EB0413B1
S11309B00122C3E901761A73F1E700BF00A00040E9
S11309C0C0100020054BD3F82804D3F81C24104091
S11309D000F05530C3F82404FFF780BF00A00040A6
S11309E0054BD3F82804D3F81C24104000F0AA3097
S11309F0C3F82404FFF772BF00A00040FEE7000024
S1130A000C4B984210D90C4B984210D90222012366
S1130A100A490B640A49D1F8003123F0807343EA90
S1130A200263C1F80031704700221346F0E7012247
S1130A30FBE700BF0048E8010090D0030000C84372
S1130A4000400E4038B5114B5B68114B00221C4628
S1130A50C9B21D798D4202D11D68854212D201327C
S1130A60052A03F10803F4D10A4841F23851FFF78B
S1130A70C5FF032205494B6823F0407343EA026330
S1130A804B6038BD04EBC2025279F3E700000E401C
S1130A90683800008B3700001F2810B5044604D9BD
S1130AA0034840F24311FFF7A9FF0120A04010BD05
S1130AB0E137000038B5074C41F67133256C2364E7
S1130AC0FFF7DCFC0021FFF7BDFF0DB10023236419
S1130AD038BD00BF00000E40044BDB6B5B0604D442
S1130AE0034AD2F8C830002BFBD1704700300E40C7
S1130AF00000C64308B5FFF7EFFF024B5868C0F388
S1130B00014008BD00300E40044BD3F84421D20705
S1130B1003D4D3F840211042FBD1704700400E406B
S1130B2038B5054C41F67133256C2364FFF78AFF11
S1130B300DB10023236438BD00000E4038B5C0F366
S1130B400323013B092B24D8DFE803F02A2D2323B8
S1130B50051619231C20154C0023C0F3043513B1CA
S1130B601846FFF7D1FF04F1424404F5801405EB65
S1130B70C404A400216038BD0D4C0123EDE70D4CE5
S1130B801023EAE70C4C4FF48033E6E70B4C0023C8
S1130B90E3E7BDE838400A4841F6D521FFF72EBF08
S1130BA0084C0023D9E7084C0023D6E7B0400E4098
S1130BB0E0400E40E8400E40F0400E4050410E40F0
S1130BC08B37000000400E40C0400E4008B5C0F313
S1130BD00313013B092B53D8DFE803F0050B0F196E
S1130BE052521F233C46284BD3F80001C0F3042083
S1130BF008BD254BD3F81401F8E7234BD3F80001C3
S1130C00C0F300600130FFF747FF0138F0E71E4BE7
S1130C10D3F80C01C0F30820EAE71B4BD3F8080112
S1130C20F8E71A4B984209D0194B98420CD041F678
S1130C3079411848FFF7E2FE0020D9E7124BD3F8B8
S1130C40200100F00F00DEE70F4BD3F82001C0F3C2
S1130C500110D8E7104B984203D10B4BD3F828016D
S1130C60F5E741F69D41E4E70C4B984205D1064B6C
S1130C70D3F8300100F00300BAE741F6AC41D8E7FD
S1130C8041F6D141D5E700BF00400E408006160072
S1130C9080162E008B37000090171A00A00914004C
S1130CA008B5FFF793FF013008BD000000F00F0006
S1130CB0013808B5072844D8DFE800F0040F1943C9
S1130CC0232D4335264BD3F8943003F00703023B1E
S1130CD0052B3DD8234AD05C08BD214BD3F8803086
S1130CE003F00703013B032B34D81F4AF3E71C4BE3
S1130CF0D3F8843003F00703013B032B2AD81B4AA3
S1130D00E9E7174BD3F8883003F00703013B032BC3
S1130D1020D8174ADFE7124B1B6F13F0010F0CBFEB
S1130D2007200920D8E70E4BD3F85C3103F03003D9
S1130D30202B11D0302B11D0102B14BF01200720F1
S1130D40CAE70C4842F22501FFF758FE0020C3E72A
S1130D500520C1E70120BFE70420BDE70820BBE769
S1130D6000400E403A38000040380000443800008B
S1130D70403800008B37000038B52C4B98420546AC
S1130D800AD02B4B984207D02A4B984204D02A48C9
S1130D9041F23861FFF732FE2846FFF787FF234B05
S1130DA09D42044611D0224B9D4212D0214B9D42BC
S1130DB013D1224BD3F8804004F00704042C2DD81F
S1130DC0DFE804F02A11151D19001C4BD3F88440E8
S1130DD0F2E71A4BD3F88840EEE7174841F267610F
S1130DE0FFF70CFEEAE7BDE83840FFF7ABBBBDE810
S1130DF03840FFF7ADBBBDE83840FFF7A6BBFFF7AF
S1130E0041FB0E4B0446D3F80001C0F300600130EF
S1130E10FFF742FEB4FBF0F4204638BD064841F229
S1130E20B961FFF7EBFD0024F6E700BF03002000E3
S1130E300500240002001E008B37000000400E4015
S1130E4038B500F47813B3F5B01F054600F081807F
S1130E502ED8B3F5402F65D011D8B3F5802F50D0DC
S1130E6006D843B1B3F5003F56D041F605411AE028
S1130E70B3F5202FF9D1BDE83840FFF703BBB3F534
S1130E80801F00F09180B3F5A01F58D0B3F5602FF8
S1130E90EBD15348FFF70AFF072800F085800928A3
S1130EA0E9D041F2FA314F48FFF7A8FD002032E0C3
S1130EB0B3F5101F5DD012D8B3F5F01F3AD0B3F5D7
S1130EC0001F54D0B3F5D01FCFD14748FFF754FFCC
S1130ED0464B0446D3F82801C0F3011042E0B3F5B1
S1130EE0481F48D0B3F5781F72D0B3F5381FBCD172
S1130EF03F48FFF741FF3D4BD3F82031C3F30113C3
S1130F0025E0FFF7BFFA394BD3F80C31C3F30823BC
S1130F100133B0FBF3F038BDFFF7B4FA334BD3F829
S1130F200831F3E7FFF7AEFA304BD3F81431C3F3CB
S1130F300423EDE72E48BDE83840FFF71DBF2D48D8
S1130F40FFF71AFF294BD3F8303103F00303D840DD
S1130F50E1E72748FFF710FF244B0446D3F82001AC
S1130F6000F00F00FFF798FDB4FBF0F0D3E71E4844
S1130F70E1E72048DFE72048FFF798FE013807281B
S1130F8023D801A353F820F0AD0E0000CB0F0000CE
S1130F90CB0F0000AF0F0000CB0F0000CB0F000001
S1130FA0A90F0000B70F0000144B1868B3E7BDE8A1
S1130FB03840FFF7A3BAFFF765FA0C4BD3F80031BA
S1130FC0C3F3042303FB0000A5E741F231416AE7C0
S1130FD0FFF758FA04462846FFF762FEC4E700BF4D
S1130FE006000E008B3700000300200000400E4076
S1130FF002001E0005002400B80032001C1000206E
S1131000014B1880704700BF20100020013838B50C
S11310100C46032864D8DFE800F002441A2FB1F527
S1131020007F04D3324842F62501FFF7E7FC314A3A
S1131030C4F30804D2F86838002BFBD12E4A136A93
S113104023F4FF7323F001032343136238BD7F2984
S113105004D9274842F63201FFF7D0FC254A04F0B0
S11310607F01D2F86038002BFBD1234B1C6924F09C
S11310707F040C431C61E9E77F2904D91C4842F62C
S11310804D01FFF7BBFC1B4A04F07F01D2F8643822
S1131090002BFBD1184B9C6924F07F040C439C610A
S11310A0D4E7154DD5F890305B0704D5104842F6C7
S11310B05D01FFF7A3FC6B6A23F0300343F01003D8
S11310C06B62C4F3C311CB1C2A6B0C490F2B01EACE
S11310D0020128BF0F23214341EA03712963B5E7C5
S11310E0BDE83840024842F67701FFF787BC00BFED
S11310F08B3700000020C84300400E4000F8FF0F6B
S1131100022810B50C4604D0144842F68F01FFF7AC
S113111075FC134B5B6A13F0300F1BD0202C16D0D8
S1131120302C17D0B4B10D4842F6AA01FFF766FC83
S11311300C4B0B4AD2F8901033EA0101FAD15B024E
S11311404ABFD2F8A0000120C0F3802010BD4FF4A4
S11311500003EEE74FF44003EBE700BF8B370000DA
S113116000400E40FF33E13F022808B50CD129B1FD
S1131170094B4FF48060C3F8A80059664AB1BDE832
S113118008400220FFF7BCBF044842F6E001FFF725
S113119035FC012008BD00BF00400E408B37000025
S11311A004282DE9F04704460F4691461FD83D4BCD
S11311B03D4A13F800A03D4B13F80080F1B93C4BB5
S11311C033F810301366012303FA08F8D2F890308C
S11311D013EA080FFAD1B9F1000F5AD00125324AA7
S11311E005FA0AF5D2F890302B42FBD151E0BDE864
S11311F0F047304842F27471FFF700BC2E4B0228CE
S113120033F8106047D1536A13F0300F43D12B4B9E
S1131210DB6B5A0504D4274842F28371FFF7EEFBD7
S1131220214A536ADB0705D5536A23F0300343F0A0
S113123010035362224D1C4BA8441E664FEA8808D3
S1131240D8F80030002BFBD0B9F1000F21D0554461
S1131250AD002B68002BFCD0022C1AD1CFB1124F59
S1131260796A11F0010118D0012220212046FFF7EC
S11312707BFFD7F89C40012200210220FFF790FF5A
S1131280C4F30A010220FFF7C1FE3E662B68002B5F
S1131290FCD0BDE8F0870027CCE72046FFF730FFFD
S11312A0E7E700BF4838000000400E404D3800001A
S11312B05C3800008B3700005238000000300E40CC
S11312C08004F210112838B50C460FD000F00F003E
S11312D00138072800F2EB80DFE810F024006600F4
S11312E09A00E9007D00B400E900C200042912D18B
S11312F0FFF704F90546A8B10021284600F0FAFBDF
S1131300023C0A2C45D8DFE804F04A47313744440C
S113131044443D0F4D00052904D1664B1D68664BBE
S11313209D42E9D80025EBE703200524012211465C
S1131330FFF736FFFFF7BEFB0DB1FFF7CDFB5F4BA9
S11313405C67FFF7C9F80446FFF79CF8FFF758FB02
S1131350FFF7D0FB01462046FFF7E2FB002D5DD1ED
S113136028460121BDE8384000F0C4BB5448FFF7CB
S113137047FB02200446D9E75148FFF741FB01240B
S11313800320D3E742F2E601BDE838404D48FFF7B9
S113139035BB42F2EB01F7E701200324C6E7002046
S11313A00424C3E70724C5E7062933D14548464D3D
S11313B042F22A11FFF722FB424842F23A11FFF7A8
S11313C01DFBFFF75FF8FFF71BFB404B0122C3F83F
S11313D00026032321E006293D4DEDD0013C092CD4
S11313E02BD801A353F824F0411400001F1400006B
S11313F02D1400003B1400003B140000C313000034
S11314003B1400003B1400003B14000019140000BE
S1131410304DE3E72C4DE1E704232B6038BD012276
S113142011460020FFF7BCFE0223F6E70122114615
S11314301046FFF7B5FE0123EFE742F26511A3E77B
S11314400023EAE7072904D0092906D042F2EF1164
S11314509AE71A4B00221A67E0E7184B0122FAE7D1
S11314604C1E072C1ED8DFE804F0201D1D161D1D80
S11314700F0403221149D1F85C3123F0300343EA0D
S11314800213C1F85C31C9E7012211460420FFF7B9
S113149087FE0122EEE7012211460220FFF780FEBB
S11314A00222E7E742F24D216EE70022E2E742F230
S11314B0243169E714100020002D310100400E4052
S11314C00148E8018B37000080400E400010C843FB
S11314D088400E4084400E4010B504461120FFF7AA
S11314E0E5FB042804D1274842F20F61FFF786FA8E
S11314F0012200210220FFF753FE63781BB9A37871
S11315000BB9E37823B11F4842F24B61FFF776FA37
S1131510237C012B04D11B4842F25261FFF76EFA7F
S1131520194A217C536A23F00103022908BF43F0BE
S113153001035362154B2178C3F8A014637AA18880
S113154043EAC123D362136BA07A217A03F07F6349
S11315500343E08843EAC02343EAC11303310F295C
S113156028BF0F2143EA01731363A37B617B1B0133
S113157043EA0133E17B0B43217B43EA0143536399
S113158010BD00BF8B37000000400E400000C84370
S113159070B505461120FFF789FB022804D10F48D6
S11315A042F2CD61FFF72AFA0D4E0E4BB26B2C7846
S11315B013401C436B7844EAC324AB7844EA0364C5
S11315C0EB7844EA0324B36BA34205D00021012243
S11315D00846FFF7E5FDB46370BD00BF8B3700001C
S11315E000400E4080E4FFF8EFF3108072B67047BD
S11315F000B962B67047EFF31180602383F311885A
S1131600704780F31188704738B5C5B2292D044658
S113161004D9084840F21F31FFF7F0F9064B64097A
S113162005F01F0553F82400E840C04300F0010012
S113163038BD00BF9038000000E100E0034BD86BD8
S113164080F04000C0F38010704700BF00300E40AF
S113165038B542EA0323B3F5007F05460C463ED075
S113166019D8B3F5807F36D00AD883B3012B21D0A3
S11316701F4840F6EE11FFF7C1F9002213461FE0A0
S113168040F201129342F3D11A4BD3F824321A0ECA
S1131690C3F3074314E0B3F5407F24D040F2013292
S11316A0934210D040F201229342E1D1114BD3F87E
S11316B0283202E00F4BD3F82432C3F30722DBB203
S11316C02B60226038BD0B4BD3F82832DFE7094B7F
S11316D0D3F81C32F1E7074BD3F81C32D7E7054B9C
S11316E0D3F82032E9E7034BD3F82032CFE700BF29
S11316F0E73800000081E00F08B5FFF79FFF20B135
S1131700024AD2F8C830002BFBD108BD0000C64302
S113171008B5FFF793FF80B1FFF7EEFF074B196899
S11317205A68C1F30121C2F3014291421A688CBF85
S113173042F0100222F010021A6008BD00300E4080
S1131740064B1B68DB0608D5054B1B69C3F3044332
S1131750082B02BF034B044A1A60704700300E4046
S113176000400E4014100020C0EA210137B5FFF7F5
S113177065FF38B1244B1B78C3F102021023934058
S1131780224A13612249234DD1F8804145F60E03C4
S1131790C1F880312B6823F0AA03DB05DB0D0B664F
S11317A0FFF7AAFF194B1B68D80604F0010416D5ED
S11317B0D1F84031DA01FBD4174B1B680B61174B8E
S11317C01B78052B0BD1164B18680190FFF794FF7B
S11317D00E4B01985968C1F30141FFF7A1F90F4B72
S11317E01978052902D01120FFF76CFD2B68DB075F
S11317F05EBF074B02221A661CB1054B0022C3F8D8
S1131800802103B030BD00BFD112002000300E4053
S113181000400E40C0120020CC120020CA1200204A
S1131820141000201A4B022810B5D3F830320C469D
S113183012D0032813D0012814BFDBB2C3F307234B
S11318401B0323F47042ECB95AB140F67D111148E0
S1131850FFF7D4F8002010BDC3F30743F0E71B0ED5
S1131860EEE70D49CA6E22F470421343CB660120A1
S1131870F1E70949D1F8EC2022F470421343C1F88E
S1131880EC30F4E7002AF4D040F68911DFE700BF1A
S11318900081E00FE738000000300E4010B50B4C1B
S11318A00B4BD4F890201A601120FFF7FFF9094B75
S11318B01870FFF721FF084B084A5B68C3F3014324
S11318C01370074B22691A6010BD00BF00400E4020
S11318D0C0120020CA12002000300E40D112002095
S11318E0CC120020094942780B6823F4407343EA80
S11318F00223022A0B6008D1054B5B6A9B0004D5C6
S113190004484FF43B71FFF779B8704700300E403C
S113191000400E40E73800007047704770470000F1
S113192010B5044608B1FFF7B9FFFFF7F1FE164AF8
S1131930136943F004031361FFF7EEFFFFF7EDFFB4
S1131940124B1B68DB0618D5FFF74EFE01F094FE20
S1131950FFF74EFEFFF7E2FF01F0FEF87CB1FFF760
S113196005FF0A4AD2F84C3123F00043C2F84C3147
S113197044B9BDE81040FEF7AFBD30BFEAE7FFF75A
S1131980DFFEEEE710BD00BF00ED00E000300E40CA
S113199038B5044608B1FFF781FFFFF7B9FE1B4BCA
S11319A01B4DD3F8802145F60E01D207C3F88011F0
S11319B048BF00224FF42071196648BFC3F8802144
S11319C0144A136943F004031361FFF7A5FF2B685E
S11319D0DB0615D5FFF708FE01F04EFEFFF708FE03
S11319E001F0BAF874B1FFF7C1FED5F84C3123F019
S11319F00043C5F84C3144B9BDE83840FEF76CBD2E
S1131A0030BFEDE7FFF79CFEEFE738BD00400E4026
S1131A1000300E4000ED00E0FFF740BFFFF7A6BE28
S1131A200378134A002B437870B514BF04260026AC
S1131A30002B8378946914BF02250025002B0379B9
S1131A4024F03F0443EA0403C47814BF08210021AE
S1131A50012C08BF43F0010333432B430B43936131
S1131A601368417923F4403343EA0143136070BDA2
S1131A7000300E40F8B504460F46FFF7DFFD78B39B
S1131A80FFF73AFE174B5B68C3F301439C4227D030
S1131A90154BD3F80061FEF7F5FC022C05460FD177
S1131AA0124BC6F3042606FB00069E4204D91048D6
S1131AB040F21471FEF7A2FF02212846FFF730F826
S1131AC0C4F1020210239340064A13610FB1FFF7D9
S1131AD013FE2CB921462846BDE8F840FFF720B88C
S1131AE0F8BD00BF00300E4000400E40002D310113
S1131AF0E738000013B50246FFF7A0FDC8B152B99C
S1131B000D4B0191D3F80041FEF7BCFCC4F3042251
S1131B10019902FB0002094B1B7843B1084B9A421E
S1131B2005D8022002B0BDE81040FFF7A3BF002093
S1131B30F8E702B010BD00BF00400E40D0120020F4
S1131B40002D3101034B02781A7001210020FFF7A8
S1131B50D1BF00BFD0120020224B4AF6E85210B584
S1131B60596B5A639A6FD207FCD41B6C13F00303AE
S1131B701EBF1D4A0124C2F8B44A834204D110B9DD
S1131B80194BC3F8B40A10BD032B00D09BB9431EF4
S1131B90012B10D8134A4FF40023D362936FDB0751
S1131BA0FCD4136C23F0030343F0010313640D4AC4
S1131BB0536A1C03FCD50B4B9A6FD207FCD41A6CE6
S1131BC022F0030202431A649A6F12F00102FBD15D
S1131BD00038054C18BF01200129C4F8B40A08BF15
S1131BE05A63D0E700300E400000C6432DE9F04FA1
S1131BF0A0F5E16389B00024B3F5966FCDE9024402
S1131C00CDE90444CDE9064406468A46934605D9FF
S1131C1040F676315548FEF7F1FEA3E0B0F5E16FEA
S1131C20534B8CBF0122002249D1D3F81832C3F39D
S1131C300721DBB2079104934FF416754FF49667AE
S1131C4048E0BBF1000F0ED0D9F85C2022F4FE422C
S1131C5022F00202B6F5E16F42EA012218BF022027
S1131C600243C9F85C20BAF1000F26D020460021B7
S1131C70FFF7D8FD044610B940F6D331CAE7012175
S1131C804046FFF7CFFD044610B940F6DB31C1E70B
S1131C90384A536EBD4238BF3D4623F4FF73E72DE7
S1131CA023F0010328BFE725B6F5E16F18BF43F021
S1131CB0010343EA4503536654E0012452E0D3F898
S1131CC01832190EC3F30743079104934FF4966532
S1131CD04FF4E167DFF89C90D9F84C400192C4F3CB
S1131CE00174234605A902A8FFF7B2FCD9F8EC3029
S1131CF0019AC3F30128434606A903A8FFF7A8FCE9
S1131D00049BF01B079FF91A4143B1FBF5F29918A4
S1131D102CBF012300238F421ED3EBB9069A039FE5
S1131D20D31B4343B3FBF5F3FF182CBF012300235C
S1131D30BA4211D383B9059B029AA3EB020C00FBB0
S1131D400CF0B0FBF5F555192CBF01200020AB4277
S1131D5002D300283FF475AF044840F6C431FEF7BF
S1131D604DFE0024204609B0BDE8F08FE73800009E
S1131D700081E00F00300E40334A08B5136FD16C78
S1131D8011F0010F03F0060344D0002B42D01328B6
S1131D9057D9143813288CBF102308232A49013B30
S1131DA0CA6C180322F47F4240EA03231343CB6432
S1131DB0264BCA6C1B88C2F303222833013202EB80
S1131DC0820003EB5303B3FBF0F3C86C013B072B16
S1131DD028BF072320F0EE6040EA036343F4801336
S1131DE0CB641B4BB3F90030002B12DB03F128004A
S1131DF0C0F34E030344500800EB4202B3FBF2F27B
S1131E000B6D072A28BF072223F0700343EA02124E
S1131E100A6508BDD16C01F00101194304D10928F8
S1131E200FD90A380928B6E7D26CD20702D50BB904
S1131E302728B0E7074840F61941FEF7DFFD0023E5
S1131E40ACE70423AAE700BF00300E40C61200200E
S1131E50C8120020E73800000C4BD3F8803910B5C5
S1131E60044633B9012804D9094840F63741FEF73E
S1131E70C5FD084A136F23F0070323431367064B7A
S1131E80BDE810401888FFF777BF00BF0000C643C5
S1131E90E738000000300E40C412002038B5038932
S1131EA0C82B044604D9514840F61C21FEF7A6FD70
S1131EB0A28823899A4204D94C4840F61D21FEF792
S1131EC09DFDB4F90C30C82B04DD484840F61E21B2
S1131ED0FEF794FD6378012B55D1A388C82B04D950
S1131EE040F622214148FEF789FDE28842F2107350
S1131EF09A4204D93D4840F62F21FEF77FFDE3883E
S1131F004A2B48D9B3F5FA7F47D340F6C31293421C
S1131F1094BF4FF000524FF040523549B4F90C00D1
S1131F20CB6C23F0405323F001030028A8BF43F0F7
S1131F3001031343CB64D1F8EC30A28843F440731B
S1131F40C1F8EC302B4B1A80CB6E43F08073CB6618
S1131F50294BD3F8800900B10420FFF77DFF274BFC
S1131F6021891980264BB4F90C20A0881A80FFF728
S1131F7003FFA37BA3B1012B23D01C4840F62E11F1
S1131F80FEF73CFD0FE0022BAFD1A3880A2BACD99E
S1131F9040F62721A6E70022BFE74FF08052BCE7B6
S1131FA0134B184A9A65012260881146FFF71EFEFA
S1131FB0054648B90D4840F66621FEF71FFD284640
S1131FC038BD0B4B104AEDE7094AD36B43F48063E9
S1131FD0D3636078FFF7C0FDA37AA3F120025342D4
S1131FE05341054AC2F89437E9E700BFE7380000D7
S1131FF000300E40C41200200000C643C612002068
S1132000C812002077402057372110B71F2970B518
S113201005460C46164603D906489121FEF7EEFC08
S113202005F1424000F5801004EBC004A4002660D2
S113203070BD00BF3D39000038B50D460446C0B13F
S1132040012818D0022819D003281AD0052803D152
S1132050FF23EB40DB0704D40B4840F22B41FEF78F
S1132060CDFC3020094B0121444301FA05F51D51F3
S113207038BD3F23EDE74FF47843EAE74FF47C6340
S1132080E7E74FF47E43E4E7CC3600000CA00046BB
S113209038B50D460446C0B1012818D0022819D01D
S11320A003281AD0052803D1FF23EB40DB0704D40F
S11320B00B484FF47F71FEF7A1FC3020094B01213E
S11320C0444301FA05F51D5138BD3F23EDE74FF4B4
S11320D07843EAE74FF47C63E7E74FF47E43E4E7B1
S11320E0CC3600000CA0004470B505460E461446DC
S11320F0FFF77AFA296881EA040202EA06044C40EE
S11321002C60BDE87040FFF773BA00002DE9F0477A
S11321108A469DF820909DF8248014461F46054663
S1132120002843D0012843D0022844D0032845D0B6
S1132130052804D1FF2020FA0AF0C30703D4284855
S1132140BF21FEF75BFC8AEA040333F0030303D0E8
S11321502348C121FEF752FC072C0AF0030A4FF072
S11321600F012ED8A6001F4805FA06F2B140FFF76A
S1132170BBFF03211C480AFA06F2B140FFF7B4FF83
S11321803A4621461948FFF741FF4A462146184876
S1132190FFF73CFF174A18480123A340C2F8243430
S11321A021464246BDE8F047FFF730BF3F20C2E773
S11321B04FF47840BFE74FF47C60BCE74FF47E40B7
S11321C0B9E7A4F10806B6000C4805FA06F2B140D6
S11321D0FFF78AFF03210A480AFA06F2B140CDE765
S11321E09339000000A4004008A4004010A400405B
S11321F014A4004000A0004028A4004004A400400F
S11322000CA40040F8B50D4616461F46044668B3B4
S113221001282DD002282ED003282FD0052803D141
S1132220FF21E940CB0704D41E484FF4B071FEF7F8
S1132230E5FB26B1294620461FB3FFF7FDFE3023F8
S1132240072D04FB03F34FF00F011DD8A80006FA75
S113225000F2814014481844FFF746FF06BB2946A4
S11322602046CFB1BDE8F840FFF7E6BE3F21D8E7EE
S11322704FF47841D5E74FF47C61D2E74FF47E41C7
S1132280CFE7FFF705FFDAE7A5F10800800006FABB
S113229000F281400548DEE7BDE8F840FFF7F8BEEC
S11322A0F8BD00BF9339000004A0004008A000401E
S11322B0022838B504460D4603D911484C21FEF7CF
S11322C09DFB6B791F2B03D90D484F21FEF796FB1D
S11322D0AB786A789B0143EA82032A781343EA784D
S11322E043EA02132A7943EAC2236A7943EA0233AE
S11322F0AA79043443EA42432401024A135138BD03
S1132300EA39000000200440014B1860704700BF08
S113231000008442427801790378002A827870B5FB
S113232014BF04260026002AC27814BF10250025F5
S1132330002A42794FEA023242EA012242EA0302C7
S1132340837914BF20240024002BC37942EA034379
S113235043EA0603027A43EA050314BF4FF400413B
S113236000212343002A14BF4FF4003200220B4300
S11323701343014A136070BD0020044070B5064643
S11323800C46154622B90D484FF42271FEF736FB70
S11323901CB90B48FEF754FD04460A4B6D00013C82
S11323A0B4FBF5F413EA04234FEA042504D00348EC
S11323B040F2A521FEF722FB756170BD413A000091
S11323C040410500070080FF38B5144B144D984276
S11323D0044606D0A84204D0124840F23441FEF725
S11323E00DFB40F6AA63E36041F20502002323607B
S11323F062600D4AA3606361E364A264074A2366D2
S113240094426367A367E36701D0AC4200D12365BC
S11324100023AC42A36508BFE36538BD000001405A
S113242000040140413A0000F9FF010038B5294B8E
S1132430984204460D4608D003F58063984204D0C0
S1132440254840F25B31FEF7D9FA2046FFF7BCFF7E
S1132450A97B2A8A2368002942F0010214BF4FF4A1
S11324608061002113430B432A7D23602368002AE3
S113247014BF4FF00052002213432360AB7C1BB106
S1132480EB7C43F08003A3652B7B43F480536360B0
S1132490D5E901122046FFF771FF6B7B0BB11023C6
S11324A0E3606B7D1BB1236843F480332360AB7D11
S11324B01BB1236843F400432360EB7D2A7E1B0792
S11324C0120503F0E04302F4E002134323662B7881
S11324D0E36038BD00000140413A000003695A0638
S11324E0FCD5416303699B06FCD5C069C0B2704743
S11324F07FB5094B6A4603F11006154618685968FA
S1132500144603C40833B3422246F7D12846FFF7E2
S1132510C5FC002004B070BD9A3A000013B5022334
S11325200024684600948DF804408DF80530FFF7C8
S113253077FA204602B010BD70B5164B86B001AADA
S113254003F11006154618685968144603C4083385
S1132550B3422246F7D11B8823800F4BD3F8B42013
S113256012030ED4D3F8B830C3F308030B48ADF804
S11325700A30FDF7C9FF2846FEF7AEFF002006B07B
S113258070BD074B1B884FF6FF72934208BF4FF490
S1132590A973EBE7AA3A00000081E00F00F04902BA
S11325A00001E00F07B5084B18680190202301A82B
S11325B08DF80430FEF7ECFF6420FEF721FD0020C7
S11325C003B05DF804FB00BFBC3A000010B50C4832
S11325D00C4C6FF00402A02112F0800FD3B21BBF89
S11325E003F00F03043BA3181B1802F101020CBFF4
S11325F083F8001319762A2AEED1002010BD00BFFB
S113260000ED00E000E100E0034B1B78002B14BF59
S113261001200220704700BF041300200329F8B5ED
S113262005460E4607D8174B5C5C032D19D8DFE826
S113263005F0090F1215144840F2AD21FEF7DEF93A
S11326400024F2E744F00204104B1F687FB9F8BD80
S113265044F00804F8E744F02004F5E744F080046B
S1132660F2E7094840F2C221FEF7C8F9ECE77B68BB
S11326701A68144203D05B683146284698473F687D
S1132680E4E700BF303B0000C03A00000013002024
S113269038B5104D2B78ABB10F4C23781BB100F03B
S11326A07AFA00232370002000F076FA0B4C50B124
S11326B000F074FA002320782B700121FFF7AEFF9D
S11326C00123237038BD064B01221A70054B227872
S11326D01A70F7E7FD120020F9120020F012002012
S11326E0FC1200200C13002010B5FEF77DFF064BF2
S11326F01B7804461BB1BDE81040FEF779BFFFF715
S1132700C7FF2046F7E700BFF812002038B5134D85
S11327102B78FF2B044605D160B1114840F21F31DC
S1132720FEF76CF92B782BB924B90D4840F221310E
S1132730FEF764F92B78002C14BF0122FF22134406
S11327402B700AD0074B1B78012B06D9064B1B783C
S11327501BB9BDE83840FFF79BBF38BD0413002008
S1132760C03A0000F0120020FC12002070B5124E96
S1132770FEF73AFF337805468BB900F025FB044693
S113278020B12846FEF734FF204670BD00F0DCFB84
S11327900A4B18600A48FDF7E1FE0A4B1C6000F082
S11327A069F900F03FFA084B18600123284633709A
S11327B00024FEF71DFFE7E7FA12002008130020AB
S11327C00013002010130020F412002068B5FEF757
S11327D00BFF094B1B78012B064604D8FEF708FFB4
S11327E00025284668BD054B1D6800F01FFA054406
S11327F03046FEF7FDFEF4E7F0120020101300202F
S113280007B5FEF7F1FE0190FFF742FF019803B010
S11328105DF804EBFEF7ECBE054B1B68584300F56E
S11328207420044B00F23F20B0FBF3F0704700BF6C
S11328300813002040420F002DE9F04385B0FEF755
S1132840D3FE0446AFF30080FDF736FD002800F008
S11328508980614D614F2B7823B10020FFF756FF2B
S113286000232B70FFF7D0FE012811D009D90238BC
S1132870C0B201287ED95A4840F20A31FEF7BEF8A8
S113288006E02B7823B10020FFF740FF00232B70D4
S1132890FFF7BAFE0128064604D9524B1B780BB940
S11328A000F058F9DFF85881DFF8589198F80000E3
S11328B0B04207D099F8003013B93146FFF7AEFEA5
S11328C088F80060012E0CD9464E33784BB9464B3C
S11328D01B7823B900F05EF9444B01221A700123DE
S11328E0337098F8000000F081F999F800301BB1BA
S11328F03F4B1B7888F80030AFF300802046FEF78A
S113290077FEFEF771FE0446384600F097FAFDF7AD
S1132910D7FC064600289ED1324F3B789BB189F8FC
S11329200000DFF8C89099F800301BB100F033F9CB
S113293089F80060002000F02FF9002842D000F050
S11329402DF900233B702B7823B10020FFF7DEFE26
S113295000232B7098F800000021FFF75FFE00238E
S113296088F80030AFF30080204605B0BDE8F0439E
S1132970FEF73EBE03A9002000F0A2FA002887D18A
S11329801C4B039A1B689A4204D80120FFF7BEFE31
S113299001237CE7184B1E6800F048F9361804D56B
S11329A00F4840F2F721FEF729F803998E42ECD242
S11329B000230222CDE90032891B104A384600F078
S11329C065FA65E7012000F011F92046FEF710FED4
S11329D0FEF70AFE0446ADE707130020D4120020D8
S11329E0C03A0000FD12002006130020F912002056
S11329F00C130020F412002010130020E92600001C
S1132A00F0120020FC12002010B5FEF7EDFD054B7E
S1132A1000221C781A70FEF7EBFD00F035FB204312
S1132A20C0B210BDFB12002073B5104E3378834240
S1132A30044611D000238DF8043078B101A88DF834
S1132A4005300B4DFEF74EFF1E204CB1FFF7E4FEA0
S1132A502B68181A2860347002B070BD0223EDE7A9
S1132A60FFF7DAFE2B681844F4E700BF22100020B9
S1132A702413002073B52F4C636ADA0003D52E4863
S1132A808C21FDF7BBFF636A9B0003D52A488F2185
S1132A90FDF7B4FF002401A88DF80440FFF752F8B5
S1132AA02046FFF7C1FF234AD2F8903003F0040315
S1132AB0A342224B0CBF214601211970D2F8903059
S1132AC01F4CC3F30033237005D04FF41670FFF787
S1132AD0A3FE1C4B186023781B4DEBB11120FEF7AD
S1132AE0AFF9144BD3F80021C2F3042202FB000215
S1132AF092B15C6C154EC4F30B44002301341946A7
S1132B00501E04EB8404E4FB060100F0E5FBFFF730
S1132B1083FE2B68184428606420FFF77DFE2B6831
S1132B201844044B2860D3F89020094B1A6002B073
S1132B3070BD00BF00400E40343B00002213002053
S1132B40201300201C1300202413002040420F00F7
S1132B5014130020FEF760BF08B50B4B1B7893B12C
S1132B60022000F039FB70B100F0DCF958B100220A
S1132B7001210220FEF714FB00F0DAF9034B186080
S1132B80034B01221A7008BD2213002018130020E1
S1132B9021130020704770470120704738B50E4C50
S1132BA00E4D23782BB92B781BB100F0C1F90C4BD7
S1132BB01860FEF733FF2B786BB10A4AD2F89030D5
S1132BC01B07FBD500F0B4F9054B1B68C01A064B74
S1132BD018600023237038BD211300202213002025
S1132BE01813002000400E401C13002002280AD0B5
S1132BF003280BD001280CD1084A136923F00403DD
S1132C00136130BF70470020FEF78ABE0020FEF734
S1132C10BFBE03484FF4B471FDF7F0BE00ED00E011
S1132C20343B00004FF41670FFF7F6BD044B1B68ED
S1132C300BB103EBD303034A10681844704700BF79
S1132C401C1300202413002010B500F071FA0A4C64
S1132C500A4B19682368C31A01B10BB9206010BD6F
S1132C604A699A422EBFD21A9B1A00224A6128BF8F
S1132C7000238968F0E700BF2C13002040130020D4
S1132C80C38870B504460D463BB9FFF79FFD8542E6
S1132C90064602D2FFF7B4FD35460F4965610B685D
S1132CA0ABB90C60A36011E0AD1A9A68656118466F
S1132CB02AB113465A69AA42F6D950B11A46846019
S1132CC01346A36013B15969491B596170BD0020B3
S1132CD0F0E70C60F5E700BF4013002038B50F4B58
S1132CE00F4D1C682B685B6902201C4400F04EFAEF
S1132CF0204600F023FA0B492A6800230B70D08881
S1132D00800702D501230B7038BD9268002AFBD0DE
S1132D1050690344012BF2D9F6E700BF2C130020BD
S1132D20401300203413002070B516469DF814207B
S1132D300271049A0260C0E903360022BDF818301B
S1132D408260C38004460D4600F0F2F93044A0616D
S1132D503DB9E368656113B121682046984796B18F
S1132D603546FEF748FC0646FFF76EFF2946204627
S1132D70FFF786FF054B1B68A34201D1FFF7AEFFA7
S1132D803046FEF73EFC002070BD00BF401300201B
S1132D900C490B6800227BB183420AD183687AB163
S1132DA0936083681BB15A6941690A445A610020DF
S1132DB070471A469B68EEE70028EFD00220704760
S1132DC00B60EEE74013002070B5154EFEF713FCC0
S1132DD034780546FCB9134B1C60134B1C60134B31
S1132DE01C8000F05FF9012000F0D0F900F01CFA1B
S1132DF00F4B0246186020B92846FEF702FC232038
S1132E0070BD23460B4840F2E73100F065FA0A4BE7
S1132E101860012333702846FEF7F3FB0020EFE728
S1132E2028130020401300202C1300203613002008
S1132E303C13002018FCFFFF301300202DE9F04163
S1132E400546F8B1FEF7D7FB0F4F0646FFF7FCFE29
S1132E502846D7F80080FFF79BFF044628B1304688
S1132E60FEF7CFFB2046BDE8F081A8453B6803D1BF
S1132E7023B1FFF733FFF2E7002BF0D1022000F07B
S1132E8093F9ECE72224EDE74013002070B586B0F7
S1132E90154605911E46044680B1FFF7CFFFBDF8E5
S1132EA02C3002939DF828300599CDE90063002267
S1132EB02B462046FFF738FF06B070BD2220FBE703
S1132EC02DE9F04107468846FEF795FB134B1C6835
S1132ED00546002624B92846FEF793FB1B2016E07E
S1132EE063691E44E388BB4215D10D4C00F020F900
S1132EF02368C01AB0420CD200F01AF92268324496
S1132F00121A2846C8F80020FEF77BFB0020BDE813
S1132F10F0810022F5E7A468DCE700BF401300203D
S1132F202C130020014B1878704700BF3413002085
S1132F3038B5FEF760FB054600F0FAF8044628466B
S1132F40FEF75FFB204638BD014B1868704700BF91
S1132F503C130020C2072DE9F84F04460BD5464A1E
S1132F60138801339BB21380FFF76EFE434B1B683B
S1132F700BB1FFF7B3FEA3077CD5FEF73CFB054678
S1132F80FFF762FE4FF0000A3C4FDFF8F890564618
S1132F90D0463C680CB163698BB1394B0022012ED9
S1132FA01A7003D1BAF1020F08BF1E70002C51D061
S1132FB0FFF794FE2846BDE8F84FFEF722BB2346F0
S1132FC01A792179914288BF1C469B6813B15A69CA
S1132FD0002AF5D02846FEF714FBD4F810A0BAF165
S1132FE0000F3BD000F0A4F8A269851AEB17AA459C
S1132FF078EB030333DA23691344A36101222369C1
S1133000D3B1CAB9EB17BAEB050563EB4303002B45
S113301004DA40F202414846FDF7F0FCFEF7EBFA11
S1133020294682462046FFF72BFEA36922691344F2
S1133030A3615046FEF7E5FAE368B4F806A001364A
S113304013B1216820469847FEF7D5FA0546FFF7E5
S1133050FBFD9EE7022000F0A7F8ABE75546FEF71C
S1133060CAFA83462046FFF793FE5846FEF7C9FA8C
S11330700022C4E7BDE8F88F361300204013002077
S113308038130020AE3B000010B5FEF7B4FA034B32
S11330901C78FEF7B6FA204610BD00BF3813002096
S11330A00020704710B51E4B86B01868596803AAF3
S11330B003C2197AD3F8090011700024B3F80D2063
S11330C00190DB7B1748ADF8082001218DF80A3008
S11330D0FDF734FD8DF80C40FFF7E2FF8DF810008A
S11330E003A8FFF717F901A901208DF80440FFF7A1
S11330F0DFF80D4A536A23F4FF6323F00703536296
S113310040F2FF73136201209460FFF7FDF8074B50
S11331104FF00042C3F880211A6006B010BD00BF12
S1133120183C0000A00914000020044000E100E065
S1133130014B9868704700BF00200440114A93680F
S1133140516D9269520704D4CA1A032A01D88B42DA
S11331500DD1C21A022A98BFD81C0A4BB0F1FF3F06
S113316038BF013858655A6A42F004025A62064A66
S1133170137833B103490B6D43F002030B6500234D
S11331801370704700200440231000208207054A72
S113319000F00103516A48BF43F004030B43536238
S11331A0704700BF00200440820700F0010309D5E6
S11331B0074A0121117007490A6D22F0030243F006
S11331C004030A6503494A6A22EA03034B6270470F
S11331D02310002000200440064B01289B6904D0E2
S11331E0022805D1C3F38000704703F00100704743
S11331F0002070470020044010B5FEF7FCF9094A8E
S113320093690446590703F0010003F0070348BF1C
S113321040F002001362FFF79DFE2046BDE8104017
S1133220FEF7EFB90020044008B50448FDF708FE96
S11332300346FFF735FF23FA00F008BDA009140088
S113324008B5FCF7F7FFFDF71DF8FDF724F8FDF7C7
S113325029F8BDE80840FDF726B808B5FDF724F8BD
S1133260FDF723F8FDF722F8BDE80840FDF71FB885
S113327010B50446FDF730F94FF47A729042B0FB72
S1133280F2F105D23621BDE810400B48FDF7B6BB7C
S11332900A4BB3FBF1F30A49884201D93C21F2E716
S11332A002FB04F0B0FBF3F0032804D9BDE810409E
S11332B0800800F00DB810BD283C000040420F000B
S11332C0E7CD9A3B00000000000000000000000071
S11332D0013800D0FCE7704753B94AB9002908BF48
S11332E000281CBF4FF0FF314FF0FF3000F074B9DD
S11332F0ADF1080C6DE904CE00F006F8DDF804E049
S1133300DDE9022304B070472DE9F047089D044627
S11333108E46002B4DD18A42944669D9B2FA82F284
S113332052B101FA02F3C2F1200120FA01F10CFAC0
S113333002FC41EA030E94404FEA1C48210CBEFBF8
S1133340F8F61FFA8CF708FB16E341EA034306FB81
S113335007F199420AD91CEB030306F1FF3080F010
S11333601F81994240F21C81023E63445B1AA4B25D
S1133370B3FBF8F008FB103344EA034400FB07F7FF
S1133380A7420AD91CEB040400F1FF3380F00A8140
S1133390A74240F207816444023840EA0640E41B35
S11333A000261DB1D4400023C5E900433146BDE8E1
S11333B0F0878B4209D9002D00F0EF800026C5E983
S11333C0000130463146BDE8F087B3FA83F6002E9B
S11333D04AD18B4202D3824200F2F980841A61EB13
S11333E0030301209E46002DE0D0C5E9004EDDE731
S11333F002B9FFDEB2FA82F2002A40F09280A1EB19
S11334000C014FEA1C471FFA8CFE0126200CB1FB6D
S1133410F7F307FB131140EA01410EFB03F0884266
S113342008D91CEB010103F1FF3802D2884200F2F3
S1133430CB804346091AA4B2B1FBF7F007FB101185
S113344044EA01440EFB00FEA64508D91CEB040423
S113345000F1FF3102D2A64500F2BB800846A4EB7E
S11334600E0440EA03409CE7C6F12007B34022FA69
S113347007FC4CEA030C20FA07F401FA06F31C4398
S1133480F9404FEA1C4900FA06F3B1FBF9F8200CA5
S11334901FFA8CFE09FB181140EA014108FB0EF0EB
S11334A0884202FA06F20BD91CEB010108F1FF3A3B
S11334B080F08880884240F28580A8F10208614447
S11334C0091AA4B2B1FBF9F009FB101144EA014155
S11334D000FB0EFE8E4508D91CEB010100F1FF3400
S11334E06CD28E456AD90238614440EA0840A0FB98
S11334F00294A1EB0E01A142C846A64656D353D06E
S11335005DB1B3EB080261EB0E0101FA07F722FA91
S113351006F3F1401F43C5E9007100263146BDE8BA
S1133520F087C2F12003D8400CFA02FC21FA03F31D
S1133530914001434FEA1C471FFA8CFEB3FBF7F09E
S113354007FB10360B0C43EA064300FB0EF69E42C3
S113355004FA02F408D91CEB030300F1FF382FD25C
S11335609E422DD9023863449B1B89B2B3FBF7F604
S113357007FB163341EA034106FB0EF38B4208D9DD
S11335801CEB010106F1FF3816D28B4214D9023E1E
S11335906144C91A46EA004638E72E46284605E73C
S11335A00646E3E61846F8E64B45A9D2B9EB02080D
S11335B064EB0C0E0138A3E74646EAE7204694E79D
S11335C04046D1E7D0467BE7023B614432E73046D0
S11335D009E76444023842E7704700BF08B5074B67
S11335E0044613B10021AFF30080054B1868836AC9
S11335F003B19847204600F031F800BF00000000F6
S11336008C3C000070B50D4D0D4C641BA4100026BD
S1133610A64209D10B4D0C4C00F022F8641BA410F7
S11336200026A64205D170BD55F8043B98470136E3
S1133630EEE755F8043B98470136F2E79C1000206A
S11336409C1000209C100020A0100020024403467F
S1133650934200D1704703F8011BF9E7FEE700BF6E
S1133660F8B500BFF8BC08BC9E467047F8B500BF6B
S1133670F8BC08BC9E4670475FF800F08510002037
S113368000100020FD05000073060000C5060000C0
S1133690D70600006D06000008100020C5070000D2
S11336A0F90700000B0800001D0800007508000061
S11336B0050000000000000040420F00050100006A
S11336C0000000000000000000000000633A5C7588
S11336D0736572735C636F2D6F70207368616865C6
S11336E065657220725C73696D706C696369747965
S11336F073747564696F5C73646B735C6765636B27
S11337006F5F73646B5C706C6174666F726D5C6523
S11337106D6C69625C696E635C656D5F6770696F2F
S11337202E6800433A2F55736572732F436F2D6FC4
S11337307020536861686565657220522F53696D06
S1133740706C696369747953747564696F2F534439
S11337504B732F6765636B6F5F73646B2F706C6162
S113376074666F726D2F6472697665722F627574F8
S1133770746F6E2F7372632F736C5F73696D706CEB
S1133780655F627574746F6E2E6300433A2F5573D0
S11337906572732F436F2D6F702053686168656580
S11337A0657220522F53696D706C69636974795323
S11337B0747564696F2F53444B732F6765636B6F24
S11337C05F73646B2F706C6174666F726D2F656DBF
S11337D06C69622F7372632F656D5F636D752E6301
S11337E000633A5C75736572735C636F2D6F702050
S11337F0736861686565657220725C73696D706C6D
S1133800696369747973747564696F5C73646B73E9
S11338105C6765636B6F5F73646B5C706C6174662B
S11338206F726D5C656D6C69625C696E635C656D1D
S11338305F636F6D6D6F6E2E68000403020B050CE1
S11338400302010A0302060A090703010508060226
S11338500004000140000400010010000002800088
S1133860080002002000000040787D0100000000F4
S1133870005A620200010000C0CF6A00020000008A
S1133880809FD50002010000002D310102020000DA
S1133890433A2F55736572732F436F2D6F70205306
S11338A06861686565657220522F53696D706C6933
S11338B06369747953747564696F2F53444B732F20
S11338C06765636B6F5F73646B2F706C6174666F95
S11338D0726D2F656D6C69622F7372632F656D5FF6
S11338E0636F72652E6300433A2F55736572732FAD
S11338F0436F2D6F7020536861686565657220524F
S11339002F53696D706C6963697479537475646954
S11339106F2F53444B732F6765636B6F5F73646BD7
S11339202F706C6174666F726D2F656D6C69622F98
S11339307372632F656D5F656D752E6300633A5C0A
S113394075736572735C636F2D6F70207368616843
S11339506565657220725C73696D706C6963697406
S11339607973747564696F5C73646B735C676563A6
S11339706B6F5F73646B5C706C6174666F726D5CAB
S1133980656D6C69625C696E635C656D5F627573BD
S11339902E6800433A2F55736572732F436F2D6F52
S11339A07020536861686565657220522F53696D94
S11339B0706C696369747953747564696F2F5344C7
S11339C04B732F6765636B6F5F73646B2F706C61F0
S11339D074666F726D2F656D6C69622F7372632FDD
S11339E0656D5F6770696F2E6300433A2F55736589
S11339F072732F436F2D6F7020536861686565651E
S1133A007220522F53696D706C69636974795374B1
S1133A107564696F2F53444B732F6765636B6F5FD6
S1133A2073646B2F706C6174666F726D2F656D6C4F
S1133A3069622F7372632F656D5F727463632E63A3
S1133A4000433A2F55736572732F436F2D6F7020A7
S1133A50536861686565657220522F53696D706C97
S1133A60696369747953747564696F2F53444B7334
S1133A702F6765636B6F5F73646B2F706C61746623
S1133A806F726D2F656D6C69622F7372632F656D34
S1133A905F75736172742E630000000108070F00E4
S1133AA00A00C8002000A000010000000000A000DF
S1133AB068010A200706020A040700000002070042
S1133AC0433A2F55736572732F436F2D6F702053D4
S1133AD06861686565657220522F53696D706C6901
S1133AE06369747953747564696F2F53444B732FEE
S1133AF06765636B6F5F73646B2F706C6174666F63
S1133B00726D2F736572766963652F706F77657256
S1133B105F6D616E616765722F7372632F736C5F83
S1133B20706F7765725F6D616E616765722E630099
S1133B3001041040433A2F55736572732F436F2D60
S1133B406F7020536861686565657220522F5369F0
S1133B506D706C696369747953747564696F2F53FC
S1133B60444B732F6765636B6F5F73646B2F706C6B
S1133B706174666F726D2F736572766963652F70F9
S1133B806F7765725F6D616E616765722F737263C3
S1133B902F736C5F706F7765725F6D616E616765BF
S1133BA0725F68616C5F73305F73312E6300433AF8
S1133BB02F55736572732F436F2D6F702053686197
S1133BC0686565657220522F53696D706C6963690D
S1133BD0747953747564696F2F53444B732F6765FD
S1133BE0636B6F5F73646B2F706C6174666F726D5F
S1133BF02F736572766963652F736C65657074697C
S1133C006D65722F7372632F736C5F736C6565706F
S1133C1074696D65722E63000100000005000000E8
S1133C200002000003000000433A2F5573657273CD
S1133C302F436F2D6F70205368616865656572202E
S1133C40522F53696D706C69636974795374756428
S1133C50696F2F53444B732F6765636B6F5F736496
S1133C606B2F706C6174666F726D2F7365727669F9
S1133C7063652F7564656C61792F7372632F736C40
S1133C805F7564656C61792E630000002410002068
S10B3C9098C4FF7F010000004D
S1133C98000000000506020005040100C0EA210135
S1133CA800F04902C0EA210100800000C0EA2101B5
S1133CB8FFFF0101000000000000000000000000F8
S1133CC800000000000000000000000000000000E8
S1133CD800000000000000000000000000000000D8
S1133CE800000000000000000000000000000000C8
S1133CF800000000000000000000000000000000B8
S1133D0800000000000000000000000000000000A7
S1133D1800000000044AD2F84C3143F0004330BF9D
S1133D28C2F84C31704700BF00300E400D0100004E
S1073D38E90000009A
S9030451A7
