:1000000000800020A5010000D1010000D101000006
:10001000D1010000D1010000D1010000D101000098
:10002000D1010000D1010000D1010000D101000088
:10003000D1010000D0010000D1010000D101000079
:10004000D1010000D1010000D1010000D101000068
:10005000D1010000D1010000D1010000D101000058
:10006000D1010000BD0B0000D1010000D101000052
:10007000D1010000D1010000D1010000D101000038
:10008000D1010000D1010000D1010000D101000028
:10009000D1010000D1010000D1010000D101000018
:1000A000D1010000D1010000D1010000D101000008
:1000B000D1010000D1010000D1010000D1010000F8
:1000C000D1010000D1010000D1010000D1010000E8
:1000D000D1010000D1010000D1010000D1010000D8
:1000E000D1010000D101000010B5054C237833B9CF
:1000F000044B13B10448AFF300800123237010BDFB
:100100007800002000000000280E000008B5034B16
:100110001BB103490348AFF3008008BD0000000095
:100120007C000020280E0000A3F5803A704700BF35
:10013000174B002B08BF134B9D46FFF7F5FF00211F
:100140008B460F461348144A121A00F043FE0E4B1A
:10015000002B00D098470D4B002B00D09847002073
:10016000002104000D000D48002802D00C48AFF318
:10017000008000F00BFE2000290000F0C5FD00F01B
:10018000F1FD00BF000008000000000000000000BA
:100190000080002078000020D00000200000000037
:1001A00000000000064880470649074A074B9A426C
:1001B000BEBF51F8040B42F8040BF8E7FFF7B8FF95
:1001C00039020000340E00000000002078000020FA
:1001D000FEE700BF114BD3F8943003F00703023B56
:1001E000032B18D8DFE803F00D0214104FF4004081
:1001F0000A4BD3F80031C3F304230133B0FBF3F00F
:100200007047074B1868F3E7064B18684008EFE79C
:10021000054B1868ECE7034B1868E9E700400E400F
:10022000000000200400002008000020014B186896
:10023000704700BF00000020044B054A9A60D3F8C5
:10024000882042F47002C3F88820704700ED00E077
:10025000000000004FF40040704700BF4FF47A7078
:10026000704700BF014B1868704700BF08000020AE
:10027000002A10B4354A364C364B12BF4FF0100CE2
:1002800023464FF0000C9042446B02D05DF8044BC3
:100290007047062903EA040307D806291AD8DFE8BD
:1002A00001F0361E064D19193E00812912D12A4A45
:1002B000D2F81412D2F81402D2F8142201F4FE413A
:1002C00000F00F00014302F0F0020A4302FA0CFCB6
:1002D00043EA0C031D4A53635DF8044B70471E4903
:1002E000D1F81022D1F81002D1F81012120C090C1A
:1002F00001F0F00102F4FE420A43C0F303410A4355
:1003000002FA0CFC114A43EA0C035363E4E7124A75
:10031000D2F81012D2F81002D2F81022CEE70E490D
:10032000D1F81822D1F8181202F00F0201F0F001F2
:100330000A4302FA0CFC43EA0C03CBE70649D1F866
:100340001422D1F81402D1F81412CFE70020004093
:100350000080FFFFFFFF00800080E00F70B5CC78C9
:100360000E460546002C37D003681A062DD50A2301
:10037000AB603278737843EA0263B27812042402E5
:1003800002F4FE02134304F4FE441C4333790BB120
:1003900044F010042C60747900F086FB2B685C40FC
:1003A00004F0C0045C402C6000F082FB2B681B064C
:1003B00000D470BD114800F0ADFA114B9D42F8D148
:1003C000BDE870400F4800F0A5BA0F4800F0A2FA4F
:1003D0000D4800F09FFACAE70B480C4C00F09AFA5F
:1003E0000B4B0344A4FB03240A4AA40D934228BFE9
:1003F00004F1FF347F2C28BF7F24B8E7B800320017
:1004000000200040009204004041050083DE1B43B1
:10041000FF23F4000024F40038B502230C46836067
:10042000897800220546FFF723FF227960786179F9
:10043000130243EA006343EA0143E17843EAC1035C
:10044000E17909B143F00053217A09B143F0040383
:10045000A17909B143F00203617A09B143F00103C4
:10046000F32AA17827D00A0619D443EA41132B6155
:100470006B6923F4F21323F007032178E27A43EA4D
:1004800041430AB143F480436A0102F18442A17AF4
:100490006B619160EB6FD5F88030EB6838BD43F04D
:1004A000E0032B616A6922F4F21221F0800322F04A
:1004B00007021343E1E70029D5D10328D5D823F05B
:1004C000706242F08063D0E7B0F5FA4F10B50D4C82
:1004D00038BF4FF4FA40844228BF044661B1601E21
:1004E0000144A142B1FBF4F028BF00F1FF307F28A6
:1004F00028BF7F20C0B210BD034800F00BFA0146B0
:10050000EDE700BF0024F4004041050008B550B1FC
:10051000084B00F5742000F23F20A3FB0030800C54
:100520000138C0B208BD044800F0F4F9012838BF12
:100530000120EDE783DE1B4340410500014B1868B5
:10054000704700BF0C000020374B98425FD02FD877
:10055000A3F5B703A3F5586398425CD018D9334B81
:10056000984219D1324BD3F8AC11324B324A186051
:10057000D2F86438002BFBD1304B98423CD0304B42
:10058000984234D02F4B98422AD02F4B9961704714
:100590002E4B984237D001D90021E6E7274B9842ED
:1005A00002D0274B98420DD1214BD3F89011DCE7B4
:1005B000274B984233D0274B984207D11C4BD3F896
:1005C000C011D2E71F4B9842EED0E5E7A3F5370301
:1005D000A3F5D8539842DFD1154BD3F8B811C4E72F
:1005E000194B21F0C06141F0806199617047164B51
:1005F00021F0C06199617047134B21F0C06141F057
:100600000071996170470A4BD3F89C11ADE7084B14
:10061000D3F8B011A9E7064BD3F8A811A5E7044B0E
:10062000D3F8BC11A1E700BFC0EA21010024F40007
:100630000081E00F0C0000200020C84380841E00D1
:1006400000093D0040420F0000400E40C0CF6A004C
:100650000048E80180D54302C0F30323013B10B4F6
:10066000092B0CD8DFE803F00E120B0B161A2A0B1D
:100670003005184CC0F304302044800001605DF860
:10068000044B7047144CC0F30430F5E7134CC0F32F
:100690000430F1E7124CC0F30430EDE7114CC0F325
:1006A00004304FF0010C104AD2F84431DB07E3D498
:1006B000D2F8403113EA0C0FFAD1DDE70B4CC0F34E
:1006C00004304FF0100CEEE7094CC0F304304FF447
:1006D000803CE8E7800AF2100000F2100006F210F9
:1006E0008005F2100007F21000400E404007F210A3
:1006F0008007F210C0F30313013B092B09D8DFE890
:1007000003F00A1016200808262C3B05284B9842B7
:100710003ED000207047274BD3F80001C0F30420DF
:100720007047244BD3F81401C0F304207047214BC9
:10073000D3F800310120C3F300630344984001382B
:1007400070471C4BD3F80C01C0F308207047194BBD
:10075000D3F80801C0F308207047174B98421DD00A
:10076000164B9842D5D1134BD3F820310120C3F357
:100770000113984001387047114B9842C9D10D4B75
:10078000D3F828310120C3F3011398400138704792
:10079000084BD3F8300100F003007047054BD3F845
:1007A0002031012003F00F0398400138704700BF4B
:1007B000A009140000400E408006160080162E008E
:1007C00090171A0000F00F000138072813D8DFE84F
:1007D00000F0141F35122A401204264BD3F85C3166
:1007E00003F03003202B42D0302B3ED0102B14BF0F
:1007F000012007207047002070471E4BD3F894302B
:1008000003F00703023B052B2DD81B4AD05C704731
:10081000184BD3F8803003F00703013B032B20D89B
:10082000164AD05C7047134BD3F8883003F00703A7
:10083000013B032B15D8124AD05C70470D4BD3F8FF
:10084000843003F00703013B032B0AD80D4AD05C28
:100850007047084B1B6F13F0010F0CBF07200920D6
:10086000704701207047052070470820704704201A
:10087000704700BF00400E40000E0000080E000050
:10088000080E00000C0E000008B50146FFF79AFFA5
:100890001C4B99422ED01C4B994225D01B4B9942A0
:1008A0001CD0013803282BD8DFE800F01410060212
:1008B000BDE80840FFF7D2BCFFF78CFC144BD3F81F
:1008C0000031C3F300630133D84008BDBDE80840E0
:1008D000FFF7C8BCBDE80840FFF7BCBC0C4BD3F821
:1008E000800000F00700DCE7094BD3F8880000F037
:1008F0000700D6E7064BD3F8840000F00700D0E7E6
:10090000002008BD030020000500240002001E0096
:1009100000400E4000F47813B3F5B01F10B500F09E
:100920008C8029D8B3F5402F00F0918019D9B3F508
:10093000801F13D0B3F5A01F09D15648FFF7A4FFBD
:10094000554BD3F8303103F00303D84010BDB3F555
:10095000602F66D1504B1B6FDB0709D44F4B1868D3
:1009600010BDB3F5802F7DD01BD9B3F5202F58D102
:10097000BDE81040FFF72EBCB3F5101F53D02DD9A2
:10098000B3F5481F42D0B3F5781F1AD10446FFF7DC
:1009900021FC01462046FFF7ADFE0130B1FBF0F02F
:1009A00010BD002BE4D0B3F5003F3AD1FFF712FCA5
:1009B000394BD3F80831C3F308230133B0FBF3F00C
:1009C00010BDB3F5381F2CD13548FFF75DFF324B12
:1009D000D3F82031C3F30113D84010BDB3F5F01F95
:1009E00026D0B3F5001F04D1BDE810402D48FFF715
:1009F0004BBFB3F5D01F14D12A48FFF745FF264B54
:100A0000D3F82831C3F30113D84010BD224CD4F8D9
:100A10005C3103F03003202B2FD0302B31D0102B42
:100A20009CD0002010BDBDE810401A48FFF72CBF35
:100A3000BDE810401A48FFF727BF1948FFF724FF09
:100A4000154BD3F8203103F00F03D84010BDFFF74A
:100A5000C1FB114BD3F81431C3F304230133B0FBB2
:100A6000F3F010BDFFF7B6FB0B4BD3F80C31C3F31B
:100A700008230133B0FBF3F010BDBDE81040FFF7D1
:100A8000D5BBFFF7A7FBD4F80031C3F3042303FB66
:100A9000000010BD0500240000400E400C000020A6
:100AA00002001E0003002000EFF3108072B67047B2
:100AB00000B962B6704700BFEFF3108072B670479E
:100AC00000B962B6704700BF38B5044601214FF443
:100AD0008A40FFF7C1FDB4F8013021780D4A5BBAB6
:100AE0009BB243EA016313600B4900204FF00043BF
:100AF00010624FF40075D0625063D3664FF0FF333D
:100B00009366C1F88051E3785B01DBB281F8093369
:100B10000D6038BD00200E4000E100E0F8B5C3B222
:100B200001259D40CB7A0F68224E0C46897A1B0521
:100B300043EA014300EB4000217B06EB001043EA4F
:100B4000415322F00302617BB566C0F88070C0F8A3
:100B50008810C0F88430C0F89820FFF7ADFFF36E1E
:100B60002B43F366237A13B1736B2B437363637A5E
:100B70001BB1104AD36A2B43D3620E4A2379126801
:100B800023B1DB431B0263F47F431A4063790BB14B
:100B900042EA0322A3790BB122EA0302E379054971
:100BA0001A43054B0A609D62CD63BDE8F840FFF72C
:100BB00087BF00BF00200E4000200E440349044BB5
:100BC0000120042288661A60704700BF00200E4092
:100BD000A400002030B5144C144D83B001214FF413
:100BE0008A40FFF739FD54F8042B019201A8012334
:100BF0008DF80430FFF768FF94E80F000C4C85E88F
:100C00000F000C4A62600C4AA260002002220B4BCB
:100C1000E06022730A4A22602946224605251D60AB
:100C2000FFF77CFF03B030BD100E0000C0000020B5
:100C3000A80000204820004094000020A4000020CC
:100C40003800508B70B586B01F2300248DF8063015
:100C500028480494FF2301218DF811308DF80440B9
:100C60008DF805408DF807408DF808408DF8094053
:100C700003940594FFF7F0FC01211F481F4D204EFF
:100C8000FFF7EAFC1F4B1022C3F85C212846FFF750
:100C90005BFCFFF753FCFFF739FC8DF80600FFF70C
:100CA0004DFC01462846FFF70FFC80238DF80930E4
:100CB0008B2301258DF8070001A930468DF81030EF
:100CC00003238DF80D308DF816508DF812408DF8F5
:100CD0000E508DF80F408DF80C408DF81350FFF733
:100CE0003DFB03A93046FFF797FBC6F88C5006B0D2
:100CF00070BD00BF404105000092040000093D00A6
:100D00000020004000400E4008B5114B1149124D23
:100D100001245C641A6842F480721A60D1F8A4312C
:100D200043F4F843C1F8A431FFF78CFFFFF752FFFB
:100D30000A490B4A40F6C4109460D368DB03FCD523
:100D4000936C0B600B6800FB03F31B0B2B60F3E74A
:100D500000000E4000300E40B8000020BC00002013
:100D60000020004008B5074B044613B10021AFF343
:100D70000080054B1868836A03B19847204600F04D
:100D800031F800BF00000000240E000070B50D4DCA
:100D90000D4C641BA4100026A64209D10B4D0C4C2F
:100DA00000F022F8641BA4100026A64205D170BDF5
:100DB00055F8043B98470136EEE755F8043B984751
:100DC0000136F2E770000020700000207000002063
:100DD0007400002002440346934200D1704703F898
:100DE000011BF9E7FEE700BFF8B500BFF8BC08BC7F
:100DF0009E467047F8B500BFF8BC08BC9E467047D9
:100E00000403020B050C00000302010A0302060A98
:100E100007000003000008000000000000000000C0
:0C0E200000050000100000200000000091
:080E2C00FCF2FF7F0100000051
:100E340000F04902C0EA210100800000C0EA21015B
:100E4400000000000000000000000000000000009E
:100E5400000000000000000000000000000000008E
:100E6400000000000000000000000000000000007E
:100E7400000000000000000000000000000000006E
:100E8400000000000000000000000000000000005E
:100E9400000000000000000000000000000000004E
:080EA4000D010000E90000004F
:04000003000001A553
:00000001FF
