S02B0000534C53544B33333031415F45464D333254473131425F6164635F73696E676C655F7072735F677069A5
S11300000080002089010000B5010000B501000056
S1130010B5010000B5010000B5010000B501000004
S1130020B5010000B5010000B5010000B5010000F4
S1130030B5010000B4010000B5010000B5010000E5
S1130040B5010000B501000061180000B501000011
S1130050B5010000B5010000B5010000B5010000C4
S1130060B5010000B5010000B5010000B5010000B4
S1130070B5010000B5010000B5010000B5010000A4
S1130080B5010000B5010000B5010000B501000094
S1130090B5010000B5010000B5010000B501000084
S11300A0B5010000B5010000B5010000B501000074
S11300B0B5010000B5010000B5010000B501000064
S11300C010B5064C2378002B07D1054B002B02D02A
S11300D0044800E000BF0123237010BD90000020FD
S11300E000000000D41D0000044B10B5002B03D009
S11300F00349044800E000BF10BDC04600000000F2
S113010094000020D41D0000402292029A1A9246C4
S11301107047C046174B002B00D1134B9D46FFF789
S1130120F3FF00218B460F461348144A121A01F0BC
S11301304FFD0E4B002B00D098470D4B002B00D0E9
S113014098470020002104000D000D48002802D02B
S11301500C4800E000BF01F017FD2000290001F069
S11301603FFC01F0FBFCC04600000800000000005A
S1130170000000000080002090000020EC0000201F
S11301800000000000000000064880470649074AB6
S1130190074B9B1A03DD043BC858D050FBDCFFF728
S11301A0B9FF000055020000E01D0000000000201F
S11301B090000020FEE7C04600487047006CDC0257
S11301C09423134A10B5D2588D3B1340042B16D0F8
S11301D00FD8022B19D080200002032B12D18023C8
S11301E00B4A5B00D158C904C90E013101F02AFC45
S11301F010BD052B06D1074B18684008EFE7064BE6
S11302001868ECE7034B1868E9E7044B1868E6E75D
S113021000400E40080000200C00002004000020D4
S113022010B5FFF7CDFF8423054A5B00D158C903FD
S1130230C90D013101F006FC024B186010BDC04627
S113024000400E4000000020014B18687047C04673
S113025004000020014A024B9A607047000000002D
S113026000ED00E0802000027047C046FA208000C4
S11302707047C046014B18687047C0460C00002008
S113028030B5002A06D1264A0025264C436B9042FD
S113029006D030BD224A1025234C436B9042F8D13E
S11302A02340062903D8214A8900525897468129B8
S11302B00ED11F48FE210268C9010A400F210468BB
S11302C0006821401143F02202400A43AA4013432C
S11302D0134A5363DDE71748FE240268E401120C55
S11302E02240FF24016800680903000D000120403A
S11302F00243090F0A43AA401343094A5363C8E758
S11303000C48D7E70C490F220C680868F0212240FA
S113031001400A43AA401343DAE70548DCE7C04634
S1130320002008400080FFFFFFFF0080101C000039
S11303301482E00F1082E00F1882E00FF8B5CC7839
S113034005000E00002C2FD003681B0625D50A23B8
S1130350AB60337872781B061343FE22B078D20365
S1130360000410400343FE202402C00132790440FB
S11303702343002A01D0102213432B60747900F028
S11303801DFFC0232A685440234053402B6000F0D3
S113039019FF2B681B0619D4F8BD114800F0DCFBCB
S11303A00F4800F0D9FBD2E70D4800F0D5FB0D4B08
S11303B00C4CC7183800BC42A4410B4901F042FB65
S11303C06442041B7F2CC2D97F24C0E7074800F095
S11303D0C3FB074B9D42DFD1064800F0BDFBDBE7C2
S11303E060410900FF23F4000024F400B800320047
S11303F00020084000B20800022370B50C0083609E
S1130400002289780500FFF73BFF60782179030615
S11304100A021343627912041343E278D2001343AD
S1130420E279002A02D0802292051343227A002A1C
S113043001D004221343A279002A01D002221343DB
S1130440627A002A01D001221343A278F32928D02A
S113045051B200291BDB520113432B616A6916490F
S113046011402278E37A52040A43002B02D08023FD
S1130470DB011A436A6104222968A37A91439B0031
S11304800B432B60EB6F8023EB58EB6870BDE021CE
S11304900B432B616969084B194080239A4311432C
S11304A0DFE7002AD4D10328D5D804490B408021A2
S11304B0C9040B43CFE7C046F8BFF1FFFFFFFFF0CD
S11304C0FA2370B5DB010400984200D21C000D4BE6
S11304D09C4200D91C0000290ED0651E6D1828000E
S11304E0210001F0AFFA0023A5425B41C01A7F2826
S11304F000D97F20C0B270BD034800F02DFB01007D
S1130500EBE7C0460024F4006041090010B5002860
S113051008D0084B08499C46604401F093FA01381E
S1130520C0B210BD054800F017FB0028F1D101301E
S1130530EFE7C0463F420F0040420F006041090010
S1130540802330B50024104DDB05C9B25B682A0056
S11305500023A14206D001330832052B11D01479AF
S1130560A142F8D114688442F5D3DB00EB185A7920
S113057012068021C9054B680448034013434B60AD
S113058030BDC0229204F4E7A41D0000FFFFFFFC6D
S113059070B5FFF715FE2F4B04001B685B0605D4EE
S11305A080222D49D2020B681342FCD12B4B5B688D
S11305B09B039B0F022B2CD0294B2A49E5182800BA
S11305C001F040FA264B8622AB429B41264D520055
S11305D05B42264EC01AAB58000233400343AB5073
S11305E01032AB58224933401843224BA8509C4642
S11305F06444200001F026FA1E4BA342A4418C233C
S113060064425B00041BE858240230402043E85055
S113061070BD194B19499C466444200001F012FA3C
S1130620154B1249A342A44186236442001B0E4C7D
S11306305B00E25800020A400243E2500C33E258E5
S11306400A400243E2508E225200A3580B40184342
S1130650A050DDE73C300E4004300E4000300E4028
S11306607FF0FA0280F0FA0200400E40FF00FEFF25
S113067000A24A04FFA14A04FF2C3101002D3101DC
S113068070B58024054BE405256C2364FFF758FFFF
S1130690002D01D00023236470BDC046711B0000EF
S11306A0014B18687047C04610000020394B10B544
S11306B0984265D029D9384B984266D01AD9374B1D
S11306C0984241D18A23364A5B00D4588022354B64
S11306D03549186092040B681342FCD1334B98429D
S11306E034D0334B98423BD0324B984232D0324BC9
S11306F09C6110BD314B984239D0314B984223D183
S11307008623274A5B00D458E0E72E4B984233D027
S113071006D92D4B984217D1FC23214AD458D5E74A
S11307202A4B98421FD000249842CFD81F4B98429E
S113073002D01F4B984203D1E023194AD458C5E78D
S11307401C4B9842F8D0C1E70024BFE7204B1C4063
S11307501443CCE71E4B1C408023DB041C43C6E738
S11307601B4B1C40C3E7EC230D4AD458AEE784234B
S11307700B4A5B00D458A9E7F823094AD458A5E7E3
S11307808023074A5B00D458A0E78823044A5B000F
S1130790D4589BE7C0EA210180D54302006CDC02F7
S11307A0B081E00F1000002040410E4080841E0004
S11307B000093D0040420F0000400E4080BA8C0109
S11307C00048E801405DC6000024F400C0CF6A0080
S11307D0FFFFFFF9030570B51B0F0E2B0DD81D4A43
S11307E09B00D3589F46C0031B4CC00E012282407D
S11307F08140236893431943216070BDC003174CA3
S1130800C00EF3E7C003164CC00EEFE7C003154C4F
S1130810C00EEBE70125C003134CC00EA2230F4A00
S11308205B00D358DB07E1D4A026760093591D4220
S1130830FCD1DBE7C00310250C4CC00EEEE780258D
S1130840C0030B4CC00E6D02E8E7C003094CC00E98
S1130850CCE7C0462C1C0000C4400E4000400E40B3
S1130860C0400E40B0400E40E0400E40E8400E4014
S1130870F0400E4050410E40030602001B0F0C2BAB
S113088059D84F499B00CB589F4682234D4A5B0061
S1130890D058C003C00D704780234A4A5B00D0582B
S11308A0C004C00EF7E78A23464A5B00D058C00450
S11308B0C00EF0E780230120424A5B00D3589B011D
S11308C09B0F013398400138E5E786233D4A5B00DE
S11308D0D058C003C00DDEE78C233A4A5B00D058E1
S11308E0C003C00DD7E78E23364A5B00D058C0033F
S11308F0C00DD0E78423334A5B00D058C003C00D39
S1130900C9E7314B984206D02DD8304B984243D09A
S11309102F4B98420FD1902301202A4A5B00D358D1
S11309205B055B0F98400138B5E72A4B98423DD0F0
S1130930294B984225D00020ADE7284B00209A424D
S1130940A9D198231F4A5B00D35803301840A2E76B
S1130950234B00209A429ED1AE231A4A5B00D358FF
S11309600330184097E71F4B9842E4D190230120AD
S1130970144A5B00D2581E3BFF3B13409840013899
S113098089E7942301200F4A5B00D3589B059B0FF2
S11309900433984001387EE790230120094A5B0024
S11309A0D3581B061B0F9840013874E79423012089
S11309B0044A5B00D3589B069B0F984001386AE7B2
S11309C0681C000000400E4000262C008016160013
S11309D080002A0090171A0090273000A009140004
S11309E0B800320080062E000F231840082815D8BE
S11309F02E4B80001B589F46AE2330202C4A5B00B0
S1130A00D358184020284ED0302848D01038431EE0
S1130A109841052340429843073070470020FCE783
S1130A209423234A0520D2588D3B1340023B052BC7
S1130A30F3D8204AD05CF0E780231D4A0120D25825
S1130A40793B1340013B032BE7D81B4AD05CE4E716
S1130A508423174A0120D2587D3B1340013B032BCA
S1130A60DBD8164AD05CD8E78823114A0120D25833
S1130A70813B1340013B032BCFD8114AD05CCCE718
S1130A80032210000A4B1B6F18401A4209D0013888
S1130A90431E98410723404298430930BDE708208C
S1130AA0BBE70720B9E70420B7E7C0469C1C000059
S1130AB000400E40441D00004C1D0000501D00006D
S1130AC04C1D000010B50400FFF78EFF1E4B9C4226
S1130AD030D01E4B9C4227D01D4B9C4212D00400A8
S1130AE0032C16D0032C06D8012C29D0022C07D1B4
S1130AF0FFF7C0FB10BD042C02D1FFF7B7FBF9E7E9
S1130B000020F7E780230724124AD0580440032C1E
S1130B10E8D1FFF755FB80230E4A5B00D3581B0E28
S1130B201C400134E040E5E788230724094AD058F3
S1130B300440D5E784230724064AD0580440CFE76D
S1130B40FFF790FBD6E7C046030020000500240011
S1130B5002001E0000400E40F8220300B021920360
S1130B6070B51340040049038B4200D1C9E04AD850
S1130B70A0221203934200D1BEE029D9802252035D
S1130B80934200D18FE00FD9A022520393421DD18A
S1130B908248FFF797FF9823814A5B00D2582E3B87
S1130BA0FF3B1340D84070BDC0221203934200D1D2
S1130BB07FE0E0221203934208D103221100784B14
S1130BC01B6F19401A426ED001296FD00020EAE74A
S1130BD08022D202934200D1B2E02CD9C022D202A8
S1130BE0934200D1A7E0802212039342EED1FFF793
S1130BF0E7FA8E236A4A5B00D158C903C90D013153
S1130C0000F020FFCFE7A82189038B4269D031D9B6
S1130C10C82189038B4200D197E017D99342D5D1DB
S1130C20FFF7CEFA05002000FFF726FE411C28003E
S1130C3000F008FFB7E7002B38D0802292029342DD
S1130C40C4D1FFF7BDFA8423554AD4E7B8229203EE
S1130C5093423AD0C02292039342B7D15148FFF74E
S1130C6031FF94234E4A5B00D3589B059B0F0433FA
S1130C70D84098E780229203934258D007D9902213
S1130C8092039342A2D14548FFF71CFF8BE7D02281
S1130C905203934240D0F0225203934296D14248E9
S1130CA0FFF710FF7FE7414B18687CE7FFF788FAEE
S1130CB079E7FFF785FA8A23394A5B00D158C904DA
S1130CC0C90E013100F0BEFE6DE73748FFF7FAFEAA
S1130CD09023334A5B00D2581E3BFF3B1340D8405D
S1130CE061E73148FFF7EEFE90232D4A5B00D358AD
S1130CF05B055B0FD84056E7FFF762FA8223284A68
S1130D0079E72948FFF7DEFE9023254A5B00D35894
S1130D101B061B0FD84046E72248FFF7D3FE942357
S1130D201F4A5B00D3589B069B0FD8403BE71D48E6
S1130D30FFF7C8FE37E7FFF743FA8C23184A5AE750
S1130D40FFF73EFA8623164A55E7AE23144C5B00A0
S1130D50E2582D3BFF3B1340202B0ED0302B12D0FA
S1130D60102B0DD00020AE2303210D4A5B00D35875
S1130D701940013100F066FE15E7FFF765FAF2E766
S1130D800A4B1868EFE7FFF71BFA80235B00E35870
S1130D90DB04DB0E01335843E5E7C04605002400BD
S1130DA000400E400300200002001E00100000203E
S1130DB0F8B5042819D8334C83001E59324C1D59F8
S1130DC0002913D1314990245B580121A9403048AE
S1130DD0036603591942FCD1002A06D0012290214E
S1130DE0B2402B4843581A42FCD1F8BD294C1C5937
S1130DF002282ED00021264B1C660124AC40264D2F
S1130E002B682342FCD0002AEFD00122B240224CAE
S1130E1023681342FCD00228E7D10029E5D01C4AFC
S1130E20536ADB439B0706D08021536A8E30C90383
S1130E3013580B42FCD0012200210220FFF7B8FF17
S1130E400422134B14491A6604320B681A42FCD06C
S1130E50CBE703270E4B9C465B6A1B093B40012BE7
S1130E60C8D10E4BDB6B63465B6A1F40032FC2D1B4
S1130E7063465B6A2D37BB43103F3B4367467B6247
S1130E80B9E7C046541D0000681D0000901D000015
S1130E9000400E407C1D000090400E4000300E408B
S1130EA0F8B503000C0011282AD00F201840082898
S1130EB025D8AE4B80001B589F46FFF781F9AC4BF9
S1130EC0984200D88DE0AB4B8024984200D836E19C
S1130ED08023A4045B02A849A8480A6802401A4374
S1130EE00A60802252008B58A548034023438B504C
S1130EF00121A44A13680B43136003232B60F8BD3C
S1130F00042944D0052931D000250C2CF7D89E4B58
S1130F10A4001B599F469D4D0A2CF0D89C4BA4005D
S1130F201B599F46072900D1F2E00929E7D1012284
S1130F30914B1A67E3E7072900D104E123D801297B
S1130F402AD00429DBD1012201210220FFF730FF3E
S1130F502022AE213024884849004358A343134338
S1130F604350CCE78B4DD7E78B4DD5E78B4B1D68B2
S1130F708B4B9D42C8D90021280000F0A3FAC4E796
S1130F8000232B60BBE730220829E2D0B7E7FFF744
S1130F905BF9051EB8D0EEE70022DAE704232B60E4
S1130FA0ADE74022744B7F491A660B681A42FCD0A5
S1130FB080227C490B681A42FCD001232B609EE7F7
S1130FC080226D4B520077491A660B681342FCD09D
S1130FD08022744992000B681342FCD002232B60D8
S1130FE08DE70024002376E7012003240122012158
S1130FF0FFF7DEFE80266C4BF605376C3364FFF793
S1131000DBF80021FFF79CFA002F01D000233364A2
S11310108626C022584B76009959644892000140B4
S1131020114399510C369959014011439951043691
S1131030995901400A439A51002D70D14E4B5C6777
S1131040FFF7EEF80400FFF7BBF8494B984263D969
S1131050484B8026984200D883E08023B6045B0284
S1131060454946480A6802401A430A6080225200F1
S11310708B584348034033438B504D4B1B685B06EE
S113108005D480224B49D2020B681342FCD180263E
S1131090494BF6055968444B376C89032000336487
S11310A0890FFFF74DFA002F01D000233364002D80
S11310B040D0FFF76DFA22E7802180202E4B4902B1
S11310C01A6840000A431A601A582D490124114035
S11310D0802252040A431A50FD3887E78021802079
S11310E0254B49021A6840000A431A601A582449D9
S11310F002241140802252040A431A50FE3875E734
S1131100072477E70020042470E7032005246DE713
S11311100022194B1A67F2E600260023A0E7244BAD
S11311201B685B068AD480222249D2020B681342D0
S1131130FCD183E70121002000F0C4F9B9E7802342
S113114064045B02C7E610220B4B16491A660B684F
S11311501A42FCD0202213490B681A42FCD01022F8
S1131160F7E6802376045B027AE7C046C01C0000E1
S11311700048E8010090D00300400E40FFFFFEFF4E
S1131180FFFFFFFCB0400E40E41C000088400E400E
S1131190181D000084400E4080400E4008000020CE
S11311A0002D310190400E40711B0000FF00FEFF36
S11311B03C300E4004300E4000300E40EFF31080FF
S11311C072B67047002800D162B67047EFF3108002
S11311D072B67047002800D162B670474023104AA7
S11311E011680B4216D11268134205D180220D49B1
S11311F0D2020B681342FCD103210B4A13685068D6
S11312001B0A000C0B4001408B4204D910211368C7
S11312100B4313607047102113688B431360F9E785
S11312203C300E4004300E4000300E40304B70B560
S11312301B685B0607D402222E4B1B78D21A10239C
S113124093402D4A1361C02201242C4B520099581B
S11312502B4D0C402B49995056222968FF320A40E5
S11312601A66234B1B685B0605D480222649D202EA
S11312700B681342FCD1204B1B68DB0612D5A0205F
S113128080211E4A4000490413580B42FCD11F4BD5
S11312901F4E1B6813613178052915D01120FFF703
S11312A0FFFD03E01A4E31780529F7D12B68DB07DF
S11312B002D40222114B1A66002C04D0C023002150
S11312C00E4A5B00D15070BD124B1868084B1B6866
S11312D05B0605D480220C49D2020B681342FCD170
S11312E0054B59688903890FFFF7CAF9DBE7C04644
S11312F03C300E40B900002000300E4000400E404B
S1131300AC0000200E58000004300E40B400002051
S1131310B00000200800002090230F4A10B5D258D6
S11313200E4B11201A60FFF75FFB0D4B18700D4B2D
S11313301B685B0605D480220B49D2020B6813425A
S1131340FCD10A4B0A4A5B689B039B0F1370024B48
S11313501A69084B1A6010BD00400E40AC00002012
S1131360B00000203C300E4004300E4000300E40EF
S1131370B9000020B40000207047C0467047C04642
S11313807047C0467047C04670B5041E38D1FFF799
S113139025FF04211E4A13690B431361FFF7ECFF79
S11313A0FFF7ECFF1B4B1B68DB0620D430BFFFF7B5
S11313B0E9FFFFF7E5FF002C07D0FFF737FF164AD8
S11313C013685B005B08136070BD124B1B68DB067F
S11313D005D5124B1B69DB02DB0E082B13D00E4A1A
S11313E013685B005B081360FEF71AFFECE7FFF776
S11313F0E5FE050000F004FC2800FFF7E3FED6E755
S1131400FFF78AFFC3E7064B064A1A60E7E7C046C0
S113141000ED00E000300E404C310E4000400E4024
S113142008000020C0EA2101F8B54023214A0D003C
S1131430116804000B4220D11268134205D18022A6
S11314401D49D2020B681342FCD11C4E73689B03E6
S11314509B0F9C4211D08023194A5B00D358FEF79E
S1131460AFFE0700022C19D002221023121B934056
S11314703361002D07D1002C00D0F8BD00213800C5
S1131480FFF7FEF8F9E70B4B1B685B06F3D48022E9
S11314900949D2020B681342FCD1ECE70221FFF7A1
S11314A0EFF810233361002DE7D0024B1B685B0675
S11314B0EDD5E2E73C300E4004300E4000300E40E3
S11314C000400E40114B70B51B680C005B060CD439
S11314D000280BD00E4B21001B78002B02D00D4BA3
S11314E098420ED90020FFF79FFF70BD80230A4A5F
S11314F05B00D558FEF764FEED04ED0E013568433C
S1131500E8E70220FFF790FFEFE7C0463C300E40CB
S1131510B8000020002D310100400E40F8B54546CA
S1131520DE4657464E46E0B598460AAB1F780BABED
S11315301B780C0015009B46072A44D8930098405A
S11315409A468146FFF73AFE30490F220B689C46C3
S1131550534666469A404B467340134073400B60B3
S1131560FFF730FE032399461C40534656469C40E1
S1131570FFF724FE4946264B1A68B14054400C40FC
S113158054401C60FFF71EFE012241465E46AA40FD
S1131590A940AF40AE401F48036893430B43036028
S11315A01D4B19689143394319601C491C4BCA509F
S11315B01C490B68934333430B60F0BCBB46B246F3
S11315C0A946A046F8BD1300083B9B0098409946E5
S11315D08246FFF7F3FD14490F220B689C464B46E5
S11315E066469A4053467340134073400B60FFF7BE
S11315F0E9FD03239A461C404B469C40FFF7DEFD61
S11316000A4B51464E461A68B7E7C0460084084064
S1131610088408401084084014840840008008406E
S11316202404000028840840048408400C840840F2
S1131630F8B54746CE464400241880B50D00160080
S11316401F002401002A06D001238B40002F3DD027
S1131650204AA2181360072D27D8AB0099463300FF
S11316604A4693409846FFF7A9FD1B4BE2181368BE
S11316700F219C464B4699404346894661464B4060
S113168049460B4061464B401360FFF79BFD002E1B
S113169007D10123AB40002F13D00E4A9446644473
S11316A02360C0BCB946B046F8BD2B00083B9B0084
S11316B0994633004A4693409846FFF77FFD074B0F
S11316C0D4E7074A944664442360EAE7044AA2182C
S11316D01360C0E70C800846048008400880084076
S11316E00C80084470B504008A200121C001FFF772
S11316F071F8A37860781B02217803435BBA114A1E
S113170009069BB20B43136000231362D362536335
S113171080231B06D366012304205B4293660A4A96
S11317208233FF33D050E378C025FF24AD00240476
S11317309B0551592340054C21400B4353511060E4
S113174070BDC0460020004000E100E0FFFF00FF44
S1131750F8B5DE4657464E464546FF23E0B501251B
S113176003409D400B680C0099468B7A93469A4639
S113177043009C462B4B60449C46000184446346D2
S11317804A46667BCF7AB046274E097BB5661A6017
S1131790264B42469C46844463461A605346244A78
S11317A01B043F0549053B430B4381180B605A4614
S11317B003239A431F4B9C4660440260FFF706FDD7
S11317C0F36E2B43F366237A002B02D0736B2B4307
S11317D07363637A002B03D0134AD36A2B43D36217
S11317E0114B22791B68002A04D0D24312491202F9
S11317F00A4313406279002A01D012021343A279EA
S1131800002A00D09343E2791343074A13600B4B39
S11318101D60D563FFF7DEFCF0BCBB46B246A946AB
S1131820A046F8BD802000400020004088200040F1
S11318308420004098200040FF00FFFF282000443F
S11318401143054A054B11408022D205143011433F
S11318508000C1507047C046077F000000600E4002
S11318600122014B9A6670470020004000B5012117
S113187083B00F48FEF7AEFF0023012200210120B0
S1131880FFF7D6FE002301220193009301210120DA
S1131890FFF744FED42001218001FEF79BFFC02105
S11318A005220020C900FFF7CBFF03B000BDC046EE
S11318B000250A008A2030B5012183B0C001FEF75B
S11318C089FF164B01A81B680193FFF70BFF144D0A
S11318D00C220021281D00F07BF98023114C1B03EE
S11318E01022002120002B6000F072F90E4B220020
S11318F023600E4B290063600D4B0020A36003237B
S11319002373733BA370FFF723FFC0210422094B09
S113191049005A501A6003B030BDC046CC1D0000C7
S1131920DC000020CC0000203000100B48200840D0
S1131930BC00002000E100E0F0B51F23002687B0C2
S113194003AC01AD0C22002120002E706E70AB7030
S1131950EE702E716E7100F03BF9FF2301211B48DC
S11319606371FEF737FF01211948FEF733FFAE23F9
S11319701021184A184F5B00D1503800FEF796FE2C
S1131980FEF78EFEFEF7C2FDA870FEF789FE010089
S11319903800FEF795FD80230127A671E6702670B6
S11319A00E4E6B717E3B2900E870237130000133C9
S11319B06370A772A770E771FEF7C0FC21003000C6
S11319C0FEF71AFD8C23F75007B0F0BD4041050027
S11319D000B2080000400E4000093D00002008400D
S11319E0F8B580230120B022DB055864124B04258E
S11319F09958124E01439950E0215C582C435C5095
S1131A008024376864013C4334605C58AC435C50C8
S1131A10995881439950F823094ADB0111680B4313
S1131A201360FFF723FFFFF787FFFFF743FF002053
S1131A30FFF7AAFCFBE7C04600400E4034400540D7
S1131A40A4310E40002243088B4274D303098B4215
S1131A505FD3030A8B4244D3030B8B4228D3030C7A
S1131A608B420DD3FF22090212BA030C8B4202D31C
S1131A701212090265D0030B8B4219D300E0090A44
S1131A80C30B8B4201D3CB03C01A5241830B8B424D
S1131A9001D38B03C01A5241430B8B4201D34B0336
S1131AA0C01A5241030B8B4201D30B03C01A52419B
S1131AB0C30A8B4201D3CB02C01A5241830A8B4220
S1131AC001D38B02C01A5241430A8B4201D34B0209
S1131AD0C01A5241030A8B4201D30B02C01A52416D
S1131AE0CDD2C3098B4201D3CB01C01A5241830921
S1131AF08B4201D38B01C01A524143098B4201D35B
S1131B004B01C01A524103098B4201D30B01C01A85
S1131B105241C3088B4201D3CB00C01A52418308FF
S1131B208B4201D38B00C01A524143088B4201D32C
S1131B304B00C01A5241411A00D20146524110468C
S1131B407047FFE701B5002000F006F802BDC0466B
S1131B500029F7D076E770477047C046084B10B5A8
S1131B600400002B02D0002100E000BF054B1868E0
S1131B70836A002B00D09847200000F031F8C0465B
S1131B8000000000D01D000070B500260C4D0D4C67
S1131B90641BA410A64209D1002600F023F80A4DC4
S1131BA00A4C641BA410A64205D170BDB300EB58C7
S1131BB098470136EEE7B300EB5898470136F2E751
S1131BC08800002088000020880000208C0000206D
S1131BD003008218934200D1704719700133F9E76A
S1131BE0FEE7C046F8B5C046F8BC08BC9E46704740
S1131BF0F8B5C046F8BC08BC9E467047000000001B
S1131C0001B40248844601BC604700BF750000204F
S1131C1000030000D6020000B20200001A03000014
S1131C20D0020000D002000004030000FA07000004
S1131C30FC07000004080000FA070000FA0700008F
S1131C400C0800001408000034080000FA07000023
S1131C503E0800004A080000FA070000FA070000E6
S1131C60FA070000E60700003609000098080000A3
S1131C70A6080000B4080000CA080000D808000044
S1131C80E6080000F4080000020900002A09000028
S1131C903A090000500900008A0800001C0A0000EC
S1131CA0200A0000380A0000500A00001C0A000044
S1131CB0680A0000800A00001C0A0000F8090000FD
S1131CC0FE0E0000080F0000680F0000640F000003
S1131CD0FE0E0000160F0000240F0000FE0E000090
S1131CE0360F0000FE0E0000FE0E0000041100007E
S1131CF0E80F0000DC100000B8100000FE0E000029
S1131D00FE0E0000FE0E0000FE0E0000FE0E00009F
S1131D100A11000000110000FE0E0000800F0000F8
S1131D20C00F0000A20F0000FE0E0000FE0E000017
S1131D30BA0E0000FE0E0000FE0E0000FE0E0000B3
S1131D409C0F00000403020B050C00000302010AAF
S1131D500302060A09000000070000000300000057
S1131D60010000000500000008000000060000005B
S1131D700200000000000000040000000001000058
S1131D8040000000040000000100000010000000FA
S1131D9000020000800000000800000002000000B3
S1131DA02000000040787D0100000000006CDC028F
S1131DB0000100008096980002000000406F40017E
S1131DC002010000002D310102020000070000039F
S10B1DD01400002000000000D3
S10B1DD830E3FF7F010000006D
S1131DE0C0EA2101006CDC02C0EA2101008000008D
S1131DF0C0EA210100000000000000000000000013
S1131E0000000000000000000000000000000000CE
S1131E1000000000000000000000000000000000BE
S1131E2000000000000000000000000000000000AE
S1131E30000000000000000000000000000000009E
S1131E40000000000000000000000000000000008E
S1131E50000000008023034A1B0611680B4330BFB7
S1131E60136070474C310E40E9000000C1000000CF
S903018972
