S029000042524434323537415F454652333246473134505F6F70616D705F746F5F6164635F322E73333727
S113000000800020A5010000D1010000D101000002
S1130010D1010000D1010000D1010000D101000094
S1130020D1010000D1010000D1010000D101000084
S1130030D1010000D0010000D1010000D101000075
S1130040D1010000D1010000D1010000D101000064
S1130050D1010000D1010000D1010000D101000054
S1130060D1010000D1010000D1010000D101000044
S1130070D1010000D1010000D1010000D101000034
S1130080D1010000D1010000D1010000D101000024
S1130090D1010000D1010000D1010000D101000014
S11300A0D1010000D1010000D1010000D101000004
S11300B0D1010000D1010000D1010000D1010000F4
S11300C0D1010000D1010000D1010000D1010000E4
S11300D0D1010000D1010000D1010000D1010000D4
S11300E0D1010000D101000010B5054C237833B9CB
S11300F0044B13B10448AFF300800123237010BDF7
S11301007800002000000000480E000008B5034BF2
S11301101BB103490348AFF3008008BD0000000091
S11301207C000020480E0000A3F5803A704700BF11
S1130130174B002B08BF134B9D46FFF7F5FF00211B
S11301408B460F461348144A121A00F037FE0E4B22
S1130150002B00D098470D4B002B00D0984700206F
S1130160002104000D000D48002802D00C48AFF314
S1130170008000F0FFFD2000290000F0B3FD00F036
S1130180E5FD00BF000008000000000000000000C2
S113019000800020780000209C0000200000000067
S11301A000000000064880470649074A074B9A4268
S11301B0BEBF51F8040B42F8040BF8E7FFF7B8FF91
S11301C039020000540E00000000002078000020D6
S11301D0FEE700BF114BD3F8943003F00703023B52
S11301E0032B18D8DFE803F00D0214104FF400407D
S11301F00A4BD3F80031C3F304230133B0FBF3F00B
S11302007047074B1868F3E7064B18684008EFE798
S1130210054B1868ECE7034B1868E9E700400E400B
S1130220000000200400002008000020014B186892
S1130230704700BF00000020044B054A9A60D3F8C1
S1130240882042F47002C3F88820704700ED00E073
S1130250000000004FF40040704700BF4FF47A7074
S1130260704700BF014B1868704700BF08000020AA
S1130270002A10B4354A364C364B12BF4FF0100CDE
S113028023464FF0000C9042446B02D05DF8044BBF
S11302907047062903EA040307D806291AD8DFE8B9
S11302A001F0361E064D19193E00812912D12A4A41
S11302B0D2F81412D2F81402D2F8142201F4FE4136
S11302C000F00F00014302F0F0020A4302FA0CFCB2
S11302D043EA0C031D4A53635DF8044B70471E49FF
S11302E0D1F81022D1F81002D1F81012120C090C16
S11302F001F0F00102F4FE420A43C0F303410A4351
S113030002FA0CFC114A43EA0C035363E4E7124A71
S1130310D2F81012D2F81002D2F81022CEE70E4909
S1130320D1F81822D1F8181202F00F0201F0F001EE
S11303300A4302FA0CFC43EA0C03CBE70649D1F862
S11303401422D1F81402D1F81412CFE7002000408F
S11303500080FFFFFFFF00800080E00F70B5CC78C5
S11303600E460546002C37D003681A062DD50A23FD
S1130370AB603278737843EA0263B27812042402E1
S113038002F4FE02134304F4FE441C4333790BB11C
S113039044F010042C60747900F0F8FA2B685C4087
S11303A004F0C0045C402C6000F0F4FA2B681B06D7
S11303B000D470BD114800F01FFA114B9D42F8D1D2
S11303C0BDE870400F4800F017BA0F4800F014FA67
S11303D00D4800F011FACAE70B480C4C00F00CFA77
S11303E00B4B0344A4FB03240A4AA40D934228BFE5
S11303F004F1FF347F2C28BF7F24B8E7B800320013
S113040000200040009204004041050083DE1B43AD
S1130410FF23F4000024F40038B502230C46836063
S1130420897800220546FFF723FF227960786179F5
S1130430130243EA006343EA0143E17843EAC10358
S1130440E17909B143F00053217A09B143F004037F
S1130450A17909B143F00203617A09B143F00103C0
S1130460F32AA17827D00A0619D443EA41132B6151
S11304706B6923F4F21323F007032178E27A43EA49
S113048041430AB143F480436A0102F18442A17AF0
S11304906B619160EB6FD5F88030EB6838BD43F049
S11304A0E0032B616A6922F4F21221F0800322F046
S11304B007021343E1E70029D5D10328D5D823F057
S11304C0706242F08063D0E7B0F5FA4F10B50D4C7E
S11304D038BF4FF4FA40844228BF044661B1601E1D
S11304E00144A142B1FBF4F028BF00F1FF307F28A2
S11304F028BF7F20C0B210BD034800F07DF901463B
S1130500EDE700BF0024F4004041050008B550B1F8
S1130510084B00F5742000F23F20A3FB0030800C50
S11305200138C0B208BD044800F066F9012838BF9C
S11305300120EDE783DE1B4340410500C0F30323A4
S1130540013B10B4092B0CD8DFE803F00E120B0B9F
S1130550161A2A0B3005184CC0F3043020448000CE
S113056001605DF8044B7047144CC0F30430F5E7A8
S1130570134CC0F30430F1E7124CC0F30430EDE740
S1130580114CC0F304304FF0010C104AD2F844313E
S1130590DB07E3D4D2F8403113EA0C0FFAD1DDE7DC
S11305A00B4CC0F304304FF0100CEEE7094CC0F3D1
S11305B004304FF4803CE8E7800AF2100000F210A7
S11305C00006F2108005F2100007F21000400E4001
S11305D04007F2108007F210C0F30313013B092B0C
S11305E009D8DFE803F00A1016200808262C3B057A
S11305F0284B98423ED000207047274BD3F8000187
S1130600C0F304207047244BD3F81401C0F3042032
S11306107047214BD3F800310120C3F30063034436
S11306209840013870471C4BD3F80C01C0F30820E4
S11306307047194BD3F80801C0F308207047174BD3
S113064098421DD0164B9842D5D1134BD3F8203184
S11306500120C3F30113984001387047114B9842AD
S1130660C9D10D4BD3F828310120C3F301139840AD
S113067001387047084BD3F8300100F0030070478D
S1130680054BD3F82031012003F00F0398400138C3
S1130690704700BFA009140000400E4080061600F9
S11306A080162E0090171A0000F00F00013807285A
S11306B013D8DFE800F0141F35122A401204264B29
S11306C0D3F85C3103F03003202B42D0302B3ED0E2
S11306D0102B14BF012007207047002070471E4BC9
S11306E0D3F8943003F00703023B052B2DD81B4AA3
S11306F0D05C7047184BD3F8803003F00703013BFC
S1130700032B20D8164AD05C7047134BD3F888309B
S113071003F00703013B032B15D8124AD05C704742
S11307200D4BD3F8843003F00703013B032B0AD8A5
S11307300D4AD05C7047084B1B6F13F0010F0CBFC0
S113074007200920704701207047052070470820C2
S113075070470420704700BF00400E40E80D0000C1
S1130760F00D0000F00D0000F40D000008B5014686
S1130770FFF79AFF1C4B99422ED01C4B994225D06F
S11307801B4B99421CD0013803282BD8DFE800F01A
S113079014100602BDE80840FFF760BDFFF71AFD1C
S11307A0144BD3F80031C3F300630133D84008BDC0
S11307B0BDE80840FFF756BDBDE80840FFF74ABD55
S11307C00C4BD3F8800000F00700DCE7094BD3F8AA
S11307D0880000F00700D6E7064BD3F8840000F049
S11307E00700D0E7002008BD030020000500240016
S11307F002001E0000400E4000F47813B3F5B01F51
S113080010B500F08C8029D8B3F5402F00F091800A
S113081019D9B3F5801F13D0B3F5A01F09D15648D9
S1130820FFF7A4FF554BD3F8303103F00303D8404E
S113083010BDB3F5602F66D1504B1B6FDB0709D495
S11308404F4B186810BDB3F5802F7DD01BD9B3F57D
S1130850202F58D1BDE81040FFF7BCBCB3F5101FE2
S113086053D02DD9B3F5481F42D0B3F5781F1AD110
S11308700446FFF7AFFC01462046FFF7ADFE01300A
S1130880B1FBF0F010BD002BE4D0B3F5003F3AD13A
S1130890FFF7A0FC394BD3F80831C3F30823013325
S11308A0B0FBF3F010BDB3F5381F2CD13548FFF77A
S11308B05DFF324BD3F82031C3F30113D84010BD90
S11308C0B3F5F01F26D0B3F5001F04D1BDE81040E6
S11308D02D48FFF74BBFB3F5D01F14D12A48FFF7BB
S11308E045FF264BD3F82831C3F30113D84010BD7C
S11308F0224CD4F85C3103F03003202B2FD0302B62
S113090031D0102B9CD0002010BDBDE810401A48F7
S1130910FFF72CBFBDE810401A48FFF727BF19485E
S1130920FFF724FF154BD3F8203103F00F03D84011
S113093010BDFFF74FFC114BD3F81431C3F304235C
S11309400133B0FBF3F010BDFFF744FC0B4BD3F8BD
S11309500C31C3F308230133B0FBF3F010BDBDE841
S11309601040FFF763BCFFF735FCD4F80031C3F344
S1130970042303FB000010BD0500240000400E40CA
S11309800C00002002001E0003002000EFF3108082
S113099072B6704700B962B6704700BF2DE9F041E6
S11309A099B9036943F400330361436813F4801372
S11309B0FBD192F814C0BCF1030F00F21B81DFE8F5
S11309C01CF0E900E100D900D100012900F0968073
S11309D092F814C0D47D8E46002392F8315025B984
S11309E0556B23F0F84343EA856392F8385025B9F0
S11309F0D56B23F0F87343EA0553804E576892F899
S1130A00188000EB4E151E40C5F8B860D2E90236D6
S1130A103343567D002E168843EA0603967843EA4C
S1130A200603166946EA070614BF4FF48017002729
S1130A303B43C5F8B0300CF1FF33DBB2022BC5F8F1
S1130A40B46098BF6E4D568B98BF55F82350938B66
S1130A5092F8257043EA06039EB292F8243094BFBC
S1130A602D024FF4C845002B136A43EA06034CEAEF
S1130A70030314BF4FF400160026002F14BF4FF4D5
S1130A80801700273343B8F1000F43EA070314BF6C
S1130A904FF48077002792F816C092F830603B43F9
S1130AA0D2E90A72BCF1000F42EA074245EA0205A4
S1130AB014BF10220022002E43EA02034FEA4E1E06
S1130AC014BF08220022002C43EA0203864414BF08
S1130AD0042200221343CEF8AC50CEF8A83029B932
S1130AE0036943F480330361BDE8F0810129FBD13C
S1130AF0036943F480230361BDE8F081036943F48F
S1130B0000230361436813F40013FBD192F814C06B
S1130B10BCF1030F6AD8DFE80CF01D140B02D47D7E
S1130B20384B002C5DD0D3F85C324FF0010E54E703
S1130B30D47D344B002C4FD0D3F858324FF0010EF3
S1130B404BE7D47D2F4B002C41D0D3F854324FF0D7
S1130B50010E42E7D47D2B4BA4B3D3F850324FF0AF
S1130B60010E3AE7D47D274B44B3D3F84C324FF00F
S1130B70000E32E7D47D234BE4B1D3F848324FF072
S1130B80000E2AE7D47D1F4B84B1D3F844324FF0D2
S1130B90000E22E7D47D1B4B24B1D3F840324FF032
S1130BA0000E1AE7D3F88032A64616E7D3F884324B
S1130BB0A64612E7D3F88832A6460EE7D3F88C325D
S1130BC0A6460AE7D3F890324FF0010E05E7D3F8B2
S1130BD094324FF0010E00E7D3F898324FF0010E33
S1130BE0FBE6D3F89C324FF0010EF6E6D47D4FF0CD
S1130BF0010EF2E6D47D4FF0000EEEE6EFEDF67D49
S1130C00F80D00000081E00F30B5012187B0002409
S1130C101B481C4DFFF792FC1F2320468DF806301D
S1130C208DF804408DF805408DF807408DF8084094
S1130C308DF80940FFF76AFC2146034612488DF8F7
S1130C400630FFF741FC01A9034628468DF807301A
S1130C50FFF784FB0123CDE903448DF80E30032311
S1130C60FF228DF80D302846272303A98DF8112083
S1130C708DF810300594FFF7CFFB07B030BD00BFEF
S1130C8000920400002000400024F40010B5114C30
S1130C90114890B00121FFF751FC0FCCEC46ACE8B1
S1130CA00F000FCCACE80F000FCCACE80F0094E8B9
S1130CB00F008CE80F004FF4C0210391074B084844
S1130CC0019385246A4600218DF80240FFF766FEF1
S1130CD010B010BD040E000000A204000400330094
S1130CE00080004008B5134B134D144801245C6484
S1130CF01A6842F480721A60D5F8A43143F4F843B8
S1130D002146C5F8A431FFF719FC0D4DFFF77CFF10
S1130D10FFF7BCFF0B480C4A40F6C4119460D3683B
S1130D20DB03FCD5936C0360036801FB03F31B0B2B
S1130D302B60F3E700000E4000300E4000A20400D8
S1130D4094000020980000200020004008B5074BC4
S1130D50044613B10021AFF30080054B1868836A81
S1130D6003B19847204600F031F800BF00000000AE
S1130D70440E000070B50D4D0D4C641BA4100026EC
S1130D80A64209D10B4D0C4C00F022F8641BA410B0
S1130D900026A64205D170BD55F8043B984701369C
S1130DA0EEE755F8043B98470136F2E7700000205F
S1130DB070000020700000207400002002440346EC
S1130DC0934200D1704703F8011BF9E7FEE700BF27
S1130DD0F8B500BFF8BC08BC9E467047F8B500BF24
S1130DE0F8BC08BC9E4670470403020B050C0000C7
S1130DF00302010A0302060A55000000080000006D
S1130E000600000000F2F2000100000000000000F3
S1130E1000000200000000000200000000000000CA
S1130E2000000000000000000000000003000000BB
S1130E3000000000000100000000000001000000AC
S10F0E4000000000100000200000000072
S10B0E4CDCF2FF7F010000004D
S1130E5400F04902C0EA210100800000C0EA210137
S1130E64000000000000000000000000000000007A
S1130E74000000000000000000000000000000006A
S1130E84000000000000000000000000000000005A
S1130E94000000000000000000000000000000004A
S1130EA4000000000000000000000000000000003A
S1130EB4000000000000000000000000000000002A
S10B0EC40D010000E90000002B
S90301A556
