S02B000042524434323537415F454652333246473134505F6C646D615F73696E676C655F6C6F6F7065642E73A5
S113000000800020A5010000D1010000D101000002
S1130010D1010000D1010000D1010000D101000094
S1130020D1010000D1010000D1010000D101000084
S1130030D1010000D0010000D1010000D101000075
S1130040D1010000D1010000D1010000D101000064
S1130050D1010000D1010000D1010000D101000054
S1130060D101000001110000D1010000D101000004
S1130070D1010000D1010000D1010000D101000034
S1130080D1010000D1010000D1010000D101000024
S1130090D1010000D1010000D1010000D101000014
S11300A0D1010000D1010000D1010000D101000004
S11300B0D1010000D1010000D1010000D1010000F4
S11300C0D1010000D1010000D1010000D1010000E4
S11300D0D1010000D1010000D1010000D1010000D4
S11300E0D1010000D101000010B5054C237833B9CB
S11300F0044B13B10448AFF300800123237010BDF7
S113010078000020000000007013000008B5034BC5
S11301101BB103490348AFF3008008BD0000000091
S11301207C00002070130000A3F5803A704700BFE4
S1130130174B002B08BF134B9D46FFF7F5FF00211B
S11301408B460F461348144A121A01F0DFF80E4B7F
S1130150002B00D098470D4B002B00D0984700206F
S1130160002104000D000D48002802D00C48AFF314
S1130170008001F0A7F82000290001F063F801F0E5
S11301808DF800BF0000080000000000000000001F
S11301900080002078000020BC0000200000000047
S11301A000000000064880470649074A074B9A4268
S11301B0BEBF51F8040B42F8040BF8E7FFF7B8FF91
S11301C0390200007C1300000000002078000020A9
S11301D0FEE700BF114BD3F8943003F00703023B52
S11301E0032B18D8DFE803F00D0214104FF400407D
S11301F00A4BD3F80031C3F304230133B0FBF3F00B
S11302007047074B1868F3E7064B18684008EFE798
S1130210054B1868ECE7034B1868E9E700400E400B
S1130220000000200400002008000020014B186892
S1130230704700BF00000020044B054A9A60D3F8C1
S1130240882042F47002C3F88820704700ED00E073
S1130250000000004FF40040704700BF4FF47A7074
S1130260704700BF014B1868704700BF08000020AA
S1130270002A10B4354A364C364B12BF4FF0100CDE
S113028023464FF0000C9042446B02D05DF8044BBF
S11302907047062903EA040307D806291AD8DFE8B9
S11302A001F0361E064D19193E00812912D12A4A41
S11302B0D2F81412D2F81402D2F8142201F4FE4136
S11302C000F00F00014302F0F0020A4302FA0CFCB2
S11302D043EA0C031D4A53635DF8044B70471E49FF
S11302E0D1F81022D1F81002D1F81012120C090C16
S11302F001F0F00102F4FE420A43C0F303410A4351
S113030002FA0CFC114A43EA0C035363E4E7124A71
S1130310D2F81012D2F81002D2F81022CEE70E4909
S1130320D1F81822D1F8181202F00F0201F0F001EE
S11303300A4302FA0CFC43EA0C03CBE70649D1F862
S11303401422D1F81402D1F81412CFE7002000408F
S11303500080FFFFFFFF00800080E00F70B5CC78C5
S11303600E460546002C37D003681A062DD50A23FD
S1130370AB603278737843EA0263B27812042402E1
S113038002F4FE02134304F4FE441C4333790BB11C
S113039044F010042C60747900F086FB2B685C40F8
S11303A004F0C0045C402C6000F082FB2B681B0648
S11303B000D470BD114800F0ADFA114B9D42F8D144
S11303C0BDE870400F4800F0A5BA0F4800F0A2FA4B
S11303D00D4800F09FFACAE70B480C4C00F09AFA5B
S11303E00B4B0344A4FB03240A4AA40D934228BFE5
S11303F004F1FF347F2C28BF7F24B8E7B800320013
S113040000200040009204004041050083DE1B43AD
S1130410FF23F4000024F40038B502230C46836063
S1130420897800220546FFF723FF227960786179F5
S1130430130243EA006343EA0143E17843EAC10358
S1130440E17909B143F00053217A09B143F004037F
S1130450A17909B143F00203617A09B143F00103C0
S1130460F32AA17827D00A0619D443EA41132B6151
S11304706B6923F4F21323F007032178E27A43EA49
S113048041430AB143F480436A0102F18442A17AF0
S11304906B619160EB6FD5F88030EB6838BD43F049
S11304A0E0032B616A6922F4F21221F0800322F046
S11304B007021343E1E70029D5D10328D5D823F057
S11304C0706242F08063D0E7B0F5FA4F10B50D4C7E
S11304D038BF4FF4FA40844228BF044661B1601E1D
S11304E00144A142B1FBF4F028BF00F1FF307F28A2
S11304F028BF7F20C0B210BD034800F00BFA0146AC
S1130500EDE700BF0024F4004041050008B550B1F8
S1130510084B00F5742000F23F20A3FB0030800C50
S11305200138C0B208BD044800F0F4F9012838BF0E
S11305300120EDE783DE1B4340410500014B1868B1
S1130540704700BF0C000020374B98425FD02FD873
S1130550A3F5B703A3F5586398425CD018D9334B7D
S1130560984219D1324BD3F8AC11324B324A18604D
S1130570D2F86438002BFBD1304B98423CD0304B3E
S1130580984234D02F4B98422AD02F4B9961704710
S11305902E4B984237D001D90021E6E7274B9842E9
S11305A002D0274B98420DD1214BD3F89011DCE7B0
S11305B0274B984233D0274B984207D11C4BD3F892
S11305C0C011D2E71F4B9842EED0E5E7A3F53703FD
S11305D0A3F5D8539842DFD1154BD3F8B811C4E72B
S11305E0194B21F0C06141F0806199617047164B4D
S11305F021F0C06199617047134B21F0C06141F053
S11306000071996170470A4BD3F89C11ADE7084B10
S1130610D3F8B011A9E7064BD3F8A811A5E7044B0A
S1130620D3F8BC11A1E700BFC0EA21010024F40003
S11306300081E00F0C0000200020C84380841E00CD
S113064000093D0040420F0000400E40C0CF6A0048
S11306500048E80180D54302C0F30323013B10B4F2
S1130660092B0CD8DFE803F00E120B0B161A2A0B19
S11306703005184CC0F304302044800001605DF85C
S1130680044B7047144CC0F30430F5E7134CC0F32B
S11306900430F1E7124CC0F30430EDE7114CC0F321
S11306A004304FF0010C104AD2F84431DB07E3D494
S11306B0D2F8403113EA0C0FFAD1DDE70B4CC0F34A
S11306C004304FF0100CEEE7094CC0F304304FF443
S11306D0803CE8E7800AF2100000F2100006F210F5
S11306E08005F2100007F21000400E404007F2109F
S11306F08007F210C0F30313013B092B09D8DFE88C
S113070003F00A1016200808262C3B05284B9842B3
S11307103ED000207047274BD3F80001C0F30420DB
S11307207047244BD3F81401C0F304207047214BC5
S1130730D3F800310120C3F3006303449840013827
S113074070471C4BD3F80C01C0F308207047194BB9
S1130750D3F80801C0F308207047174B98421DD006
S1130760164B9842D5D1134BD3F820310120C3F353
S11307700113984001387047114B9842C9D10D4B71
S1130780D3F828310120C3F301139840013870478E
S1130790084BD3F8300100F003007047054BD3F841
S11307A02031012003F00F0398400138704700BF47
S11307B0A009140000400E408006160080162E008A
S11307C090171A0000F00F000138072813D8DFE84B
S11307D000F0141F35122A401204264BD3F85C3162
S11307E003F03003202B42D0302B3ED0102B14BF0B
S11307F0012007207047002070471E4BD3F8943027
S113080003F00703023B052B2DD81B4AD05C70472D
S1130810184BD3F8803003F00703013B032B20D897
S1130820164AD05C7047134BD3F8883003F00703A3
S1130830013B032B15D8124AD05C70470D4BD3F8FB
S1130840843003F00703013B032B0AD80D4AD05C24
S11308507047084B1B6F13F0010F0CBF07200920D2
S11308607047012070470520704708207047042016
S1130870704700BF00400E403813000040130000D2
S1130880401300004413000008B50146FFF79AFF27
S11308901C4B99422ED01C4B994225D01B4B99429C
S11308A01CD0013803282BD8DFE800F0141006020E
S11308B0BDE80840FFF7D2BCFFF78CFC144BD3F81B
S11308C00031C3F300630133D84008BDBDE80840DC
S11308D0FFF7C8BCBDE80840FFF7BCBC0C4BD3F81D
S11308E0800000F00700DCE7094BD3F8880000F033
S11308F00700D6E7064BD3F8840000F00700D0E7E2
S1130900002008BD030020000500240002001E0092
S113091000400E4000F47813B3F5B01F10B500F09A
S11309208C8029D8B3F5402F00F0918019D9B3F504
S1130930801F13D0B3F5A01F09D15648FFF7A4FFB9
S1130940554BD3F8303103F00303D84010BDB3F551
S1130950602F66D1504B1B6FDB0709D44F4B1868CF
S113096010BDB3F5802F7DD01BD9B3F5202F58D1FE
S1130970BDE81040FFF72EBCB3F5101F53D02DD99E
S1130980B3F5481F42D0B3F5781F1AD10446FFF7D8
S113099021FC01462046FFF7ADFE0130B1FBF0F02B
S11309A010BD002BE4D0B3F5003F3AD1FFF712FCA1
S11309B0394BD3F80831C3F308230133B0FBF3F008
S11309C010BDB3F5381F2CD13548FFF75DFF324B0E
S11309D0D3F82031C3F30113D84010BDB3F5F01F91
S11309E026D0B3F5001F04D1BDE810402D48FFF711
S11309F04BBFB3F5D01F14D12A48FFF745FF264B50
S1130A00D3F82831C3F30113D84010BD224CD4F8D5
S1130A105C3103F03003202B2FD0302B31D0102B3E
S1130A209CD0002010BDBDE810401A48FFF72CBF31
S1130A30BDE810401A48FFF727BF1948FFF724FF05
S1130A40154BD3F8203103F00F03D84010BDFFF746
S1130A50C1FB114BD3F81431C3F304230133B0FBAE
S1130A60F3F010BDFFF7B6FB0B4BD3F80C31C3F317
S1130A7008230133B0FBF3F010BDBDE81040FFF7CD
S1130A80D5BBFFF7A7FBD4F80031C3F3042303FB62
S1130A90000010BD0500240000400E400C000020A2
S1130AA002001E0003002000EFF3108072B67047AE
S1130AB000B962B6704700BFEFF3108072B670479A
S1130AC000B962B6704700BF42EA0323B3F5007F62
S1130AD05BD01DD8B3F5807F3CD00CD940F2011215
S1130AE0934232D12D4BD3F824321A0EC3F3074369
S1130AF003600A607047002B35D0012B25D1274BAA
S1130B00D3F82432C3F30722DBB203600A607047D0
S1130B10B3F5407F30D040F20132934208D11F4BED
S1130B20D3F828321A0EC3F3074303600A607047F0
S1130B3040F20122934208D1184BD3F82832C3F370
S1130B400722DBB203600A60704700221346036089
S1130B500A607047114BD3F81C321A0EC3F30743D3
S1130B6003600A6070470D4BD3F81C32C3F30722AD
S1130B70DBB203600A607047084BD3F820321A0EC8
S1130B80C3F3074303600A607047044BD3F8203271
S1130B90C3F30722DBB203600A6070470081E00FF1
S1130BA0254A4AF6E85310B4546B5363936FDB073A
S1130BB0FCD4136C13F0030324D0204A0121834294
S1130BC0C2F8B41A1BD0032B02D1431E012B21D926
S1130BD0194A936FDB07FCD4136C174923F0030302
S1130BE0034313648B6F13F00103FBD10038134AE2
S1130BF018BF0120012CC2F8B40A00D14B635DF880
S1130C00044B70470028E0D10C4B5DF8044BC3F84B
S1130C10B40A7047084A4FF40023D362936FD9078C
S1130C20FCD4136C044923F0030343F0010313645D
S1130C304B6A1A03FCD5CBE700300E400000C643D4
S1130C402DE9F04FA0F5E16689B00023B6F5966F63
S1130C50CDE90233CDE90433CDE9063367D8B0F5E5
S1130C60E16F174605460C468CBF0122002262D074
S1130C70614BD3F81832190EC3F307434FF4966A45
S1130C8007910493DFF874910192D9F84C30C3F3BF
S1130C90017805A902A84346FFF716FFD9F8EC30FE
S1130CA0019AC3F3012B5B4606A903A8FFF70CFFC7
S1130CB0049B079AD11A06FB01F1B1FBFAF15B1808
S1130CC02CBF012100219A4231D381BB039906989C
S1130CD0421A06FB02F2B2FBFAF28A182CBF012177
S1130CE00021904223D311BB02980599A1EB000C7B
S1130CF006FB0CF6B6FBFAFA10EB0A0A2CBF01202D
S1130D000020514513D390B977B1D9F85C1021F480
S1130D10FE4121F0020141EA0323B5F5E16F3749B1
S1130D2018BF43F00203CB658CB9012000E000201A
S1130D3009B0BDE8F08F304BD3F818324FF4167673
S1130D40C3F30721DBB207910493B2469AE72A4B17
S1130D50B8F1020FD3F8303244D0B8F1030F44D0C5
S1130D60B8F1010F14BFDBB2C3F307231B0313F461
S1130D70702FDCD12148204EC16E21F470410B4309
S1130D80C366BBF1020FD6F8303232D0BBF1030F89
S1130D902DD0BBF1010F14BFDBB2C3F307231B0338
S1130DA013F4702FC3D11549924538BF9246D1F838
S1130DB0EC2022F470421343C1F8EC304B6E23F460
S1130DC0FF73BAF1E70F23F0010328BF4FF0E70ADE
S1130DD0B5F5E16F18BF43F0010343EA4A03204627
S1130DE04B66A5E7C3F30743C0E71B0EBEE71B0E24
S1130DF0D5E7C3F30743D2E70081E00F00300E408C
S1130E003C4B196FDA6C10B4D40707D511F0060FF8
S1130E104DD0132862D84FF44C520EE0DA6CD4074C
S1130E2006D411F0060F45D0DB6C6FF0FF0204E02E
S1130E30DB6CDC0748D46FF0FF022E482E49C36CEC
S1130E402E4C23F47F431343C364C26C0B88C16CE0
S1130E50C2F303222833013203EB530302EB820C67
S1130E60B3FBFCF3013B072B28BF072321F0EE6102
S1130E7041EA036343F48013C364B4F90030002BE4
S1130E8012DB03F12801C1F34E030B445408016D36
S1130E9004EB4202B3FBF2F2072A21F0700328BFED
S1130EA0072243EA021202655DF8044B7047DA6CCC
S1130EB0D1071BD40928AED90A3809288CBF4FF4AE
S1130EC07F424FF4EE42B8E711F0060FB3D1272862
S1130ED08CBF4FF47F424FF4EE42AEE71438132830
S1130EE08CBF4FF47F424FF4EE42A6E7DB6CDB0786
S1130EF0EDD4A0E700300E409600002098000020BA
S1130F0038B5C38804464A2B8088B4F90CC005D987
S1130F10B3F5FA7F56D24FF0805100E00021344AF5
S1130F20344DD36C23F0405323F00103BCF1000F84
S1130F30A8BF43F001030B43D364D2F8EC302E492D
S1130F4043F44073C2F8EC30D36E288043F08073CE
S1130F50D366D1F88039002B3DD0D1F88039136F96
S1130F6023F0070343F004031367FFF749FF234902
S1130F70234B2089B4F90C200880A0881A80FFF73D
S1130F803FFFA37B83B3012B02D1194B1D4A9A6502
S1130F90012260881146FFF753FE054680B1144ACA
S1130FA0D36B43F48063D3636078FFF7F9FDA37ACE
S1130FB0114AA3F12003B3FA83F35B09C2F894370F
S1130FC0284638BD40F6C3118B4294BF4FF0005100
S1130FD04FF04051A3E7D1F88039136F23F0070392
S1130FE01367FFF70DFFC2E7014B074A9A65CFE786
S1130FF000300E40940000200000C64396000020FC
S113100098000020372110B77740205738B50446A0
S113101001214FF48A40FFF71FFBB4F80130217817
S11310200D4A5BBA9BB243EA016313600B4900208B
S11310304FF0004310624FF40075D0625063D366E2
S11310404FF0FF339366C1F88051E3785B01DBB264
S113105081F809330D6038BD00200E4000E100E046
S1131060F8B5C3B201259D40CB7A0F68224E0C46D9
S1131070897A1B0543EA014300EB4000217B06EB20
S1131080001043EA415322F00302617BB566C0F8C5
S11310908070C0F88810C0F88430C0F89820FFF73A
S11310A00BFDF36E2B43F366237A13B1736B2B435F
S11310B07363637A1BB1104AD36A2B43D3620E4A1B
S11310C02379126823B1DB431B0263F47F431A4084
S11310D063790BB142EA0322A3790BB122EA03023A
S11310E0E37905491A43054B0A609D62CD63BDE867
S11310F0F840FFF7E5BC00BF00200E4000200E447E
S1131100054B1A6E9A66002A04DB1A6B42F0010240
S11311101A637047FEE700BF00200E4010B5124C62
S113112086B054F8043B019301A8FFF76FFF94E8DD
S11311300F000DF1080C8CE80F000C4C0C4A0D4B01
S11311400020C4E900230123C4E9020322466146C6
S1131150FFF786FF084B094AC3F894201A6B42F044
S113116001021A6306B010BD48130000AC00002051
S1131170300053884820004000200E409C0000208E
S113118070B586B01F2300248DF8063028480494D7
S1131190FF2301218DF811308DF804408DF80540AE
S11311A08DF807408DF808408DF8094003940594A4
S11311B0FFF752FA01211F481F4D204EFFF74CFA4A
S11311C01F4B1022C3F85C212846FFF7BDF9FFF737
S11311D0B5F9FFF79BF98DF80600FFF7AFF9014663
S11311E02846FFF771F980238DF809308B230125F8
S11311F08DF8070001A930468DF8103003238DF8CF
S11312000D308DF816508DF812408DF80E508DF873
S11312100F408DF80C408DF81350FFF79FF803A989
S11312203046FFF7F9F8C6F88C5006B070BD00BF21
S1131230404105000092040040420F00002000409D
S113124000400E40114A1248012300B5536411684E
S1131250104B41F480711160D0F8A42142F4F8429B
S1131260C0F8A4210FCB85B0EC468CE80F00604693
S1131270FFF746FEFFF784FFFFF750FF064A1369A6
S113128023F00403136130BFF9E700BF00000E40F0
S113129000300E405C13000000ED00E008B5074B81
S11312A0044613B10021AFF30080054B1868836A2C
S11312B003B19847204600F031F800BF0000000059
S11312C06C13000070B50D4D0D4C641BA41000266A
S11312D0A64209D10B4D0C4C00F022F8641BA4105B
S11312E00026A64205D170BD55F8043B9847013647
S11312F0EEE755F8043B98470136F2E7700000200A
S11313007000002070000020740000200244034696
S1131310934200D1704703F8011BF9E7FEE700BFD1
S1131320F8B500BFF8BC08BC9E467047F8B500BFCE
S1131330F8BC08BC9E4670470403020B050C000071
S11313400302010A0302060A070000030000080062
S11313500000000000000000000300000001080776
S11313600F000A00C8002000A000010010000020A7
S10713700000000075
S10B1374B4EDFF7F010000004D
S113137C00F04902C0EA210100800000C0EA21010A
S113138C000000000000000000000000000000004D
S113139C000000000000000000000000000000003D
S11313AC000000000000000000000000000000002D
S11313BC000000000000000000000000000000001D
S11313CC000000000000000000000000000000000D
S11313DC00000000000000000000000000000000FD
S10B13EC0D010000E9000000FE
S90301A556
