:1000000000800020A5010000D1010000D101000006
:10001000D1010000D1010000D1010000D101000098
:10002000D1010000D1010000D1010000D101000088
:10003000D1010000D0010000D1010000D101000079
:10004000D1010000D1010000D1010000D101000068
:10005000D1010000D1010000D1010000D101000058
:10006000D1010000A9140000D1010000D10100005D
:10007000D1010000D1010000D1010000D101000038
:10008000D1010000D1010000D1010000D101000028
:10009000D1010000D1010000D1010000D101000018
:1000A000D1010000D1010000D1010000D101000008
:1000B000D1010000D1010000D1010000D1010000F8
:1000C000D1010000D1010000D1010000D1010000E8
:1000D000D1010000D1010000D1010000D1010000D8
:1000E000D1010000D101000010B5054C237833B9CF
:1000F000044B13B10448AFF300800123237010BDFB
:1001000094000020000000001018000008B5034B08
:100110001BB103490348AFF3008008BD0000000095
:100120009800002010180000A3F5803A704700BF27
:10013000174B002B08BF134B9D46FFF7F5FF00211F
:100140008B460F461348144A121A01F0FDFA0E4B63
:10015000002B00D098470D4B002B00D09847002073
:10016000002104000D000D48002802D00C48AFF318
:10017000008001F0C5FA2000290001F08FFA01F09B
:10018000ABFA00BF00000800000000000000000003
:1001900000800020940000200401002000000000E6
:1001A00000000000064880470649074A074B9A426C
:1001B000BEBF51F8040B42F8040BF8E7FFF7B8FF95
:1001C000650200001C1800000000002094000020C0
:1001D000FEE700BF0048704700F04902114BD3F81A
:1001E000943003F00703023B032B18D8DFE803F039
:1001F0000D0214104FF400400A4BD3F80031C3F342
:1002000004230133B0FBF3F07047074B1868F3E7A2
:10021000064B18684008EFE7054B1868ECE7034BFE
:100220001868E9E700400E400400002008000020A4
:100230000C00002008B5FFF7D1FF054B054AD3F8A5
:100240000831C3F308230133B0FBF3F0106008BD9D
:1002500000400E4000000020014B1868704700BFAE
:1002600004000020044B054A9A60D3F8882042F429
:100270007002C3F88820704700ED00E00000000025
:100280004FF40040704700BF4FF47A70704700BFD2
:10029000014B1868704700BF0C000020002A10B402
:1002A000354A364C364B12BF4FF0100C23464FF0F8
:1002B000000C9042446B02D05DF8044B7047062955
:1002C00003EA040307D806291AD8DFE801F0361E2E
:1002D000064D19193E00812912D12A4AD2F814126A
:1002E000D2F81402D2F8142201F4FE4100F00F00FB
:1002F000014302F0F0020A4302FA0CFC43EA0C0349
:100300001D4A53635DF8044B70471E49D1F8102213
:10031000D1F81002D1F81012120C090C01F0F00102
:1003200002F4FE420A43C0F303410A4302FA0CFC02
:10033000114A43EA0C035363E4E7124AD2F810125D
:10034000D2F81002D2F81022CEE70E49D1F81822C6
:10035000D1F8181202F00F0201F0F0010A4302FA7C
:100360000CFC43EA0C03CBE70649D1F81422D1F880
:100370001402D1F81412CFE7002000400080FFFFE4
:10038000FFFF00800080E00F70B5CC780E46054678
:10039000002C37D003681A062DD50A23AB603278BB
:1003A000737843EA0263B2781204240202F4FE0274
:1003B000134304F4FE441C4333790BB144F010049E
:1003C0002C60747900F0F2FD2B685C4004F0C004EE
:1003D0005C402C6000F0EEFD2B681B0600D470BD65
:1003E000114800F0E9FA114B9D42F8D1BDE8704088
:1003F0000F4800F0E1BA0F4800F0DEFA0D4800F0B7
:10040000DBFACAE70B480C4C00F0D6FA0B4B03445E
:10041000A4FB03240A4AA40D934228BF04F1FF342D
:100420007F2C28BF7F24B8E7B800320000200040AE
:10043000009204004041050083DE1B43FF23F400CB
:100440000024F40038B502230C468360897800222A
:100450000546FFF723FF227960786179130243EAAA
:10046000006343EA0143E17843EAC103E17909B15A
:1004700043F00053217A09B143F00403A17909B193
:1004800043F00203617A09B143F00103F32AA17832
:1004900027D00A0619D443EA41132B616B6923F470
:1004A000F21323F007032178E27A43EA41430AB1C9
:1004B00043F480436A0102F18442A17A6B61916046
:1004C000EB6FD5F88030EB6838BD43F0E0032B616B
:1004D0006A6922F4F21221F0800322F0070213432A
:1004E000E1E70029D5D10328D5D823F0706242F086
:1004F0008063D0E7B0F5FA4F10B50D4C38BF4FF41C
:10050000FA40844228BF044661B1601E0144A14202
:10051000B1FBF4F028BF00F1FF307F2828BF7F2017
:10052000C0B210BD034800F047FA0146EDE700BF36
:100530000024F4004041050008B550B1084B00F517
:10054000742000F23F20A3FB0030800C0138C0B2C1
:1005500008BD044800F030FA012838BF0120EDE75B
:1005600083DE1B43404105004FF0000C124B134A41
:100570005B68C9B2614510B4634608D00133052BEE
:1005800002F1080215D012F808CC6145F6D152F8F4
:100590000C4C8442F2D30A4A02EBC3035B791A067D
:1005A00005495DF8044B4B6823F0407313434B60DF
:1005B00070474FF04072F3E700000E40EC17000068
:1005C000E017000038B5054C41F67133256C236403
:1005D000FFF7CAFF0DB10023236438BD00000E40B1
:1005E000014B1868704700BF10000020374B98423D
:1005F0005FD02FD8A3F5B703A3F5586398425CD01A
:1006000018D9334B984219D1324BD3F8AC11324B35
:10061000324A1860D2F86438002BFBD1304B984234
:100620003CD0304B984234D02F4B98422AD02F4B9D
:10063000996170472E4B984237D001D90021E6E7E7
:10064000274B984202D0274B98420DD1214BD3F82B
:100650009011DCE7274B984233D0274B984207D1C3
:100660001C4BD3F8C011D2E71F4B9842EED0E5E700
:10067000A3F53703A3F5D8539842DFD1154BD3F830
:10068000B811C4E7194B21F0C06141F08061996154
:100690007047164B21F0C06199617047134B21F0F0
:1006A000C06141F00071996170470A4BD3F89C1109
:1006B000ADE7084BD3F8B011A9E7064BD3F8A81162
:1006C000A5E7044BD3F8BC11A1E700BFC0EA2101A4
:1006D0000024F4000081E00F100000200020C84337
:1006E00080841E0000093D0040420F0000400E4083
:1006F000C0CF6A000048E80180D54302C0F303235D
:10070000013B10B4092B0CD8DFE803F00E120B0BE1
:10071000161A2A0B3005184CC0F304302044800010
:1007200001605DF8044B7047144CC0F30430F5E7EA
:10073000134CC0F30430F1E7124CC0F30430EDE782
:10074000114CC0F304304FF0010C104AD2F8443180
:10075000DB07E3D4D2F8403113EA0C0FFAD1DDE71E
:100760000B4CC0F304304FF0100CEEE7094CC0F313
:1007700004304FF4803CE8E7800AF2100000F210E9
:100780000006F2108005F2100007F21000400E4043
:100790004007F2108007F210C0F30313013B092B4E
:1007A00009D8DFE803F00A1016200808262C3B05BC
:1007B000284B98423ED000207047274BD3F80001C9
:1007C000C0F304207047244BD3F81401C0F3042075
:1007D0007047214BD3F800310120C3F30063034479
:1007E0009840013870471C4BD3F80C01C0F3082027
:1007F0007047194BD3F80801C0F308207047174B16
:1008000098421DD0164B9842D5D1134BD3F82031C6
:100810000120C3F30113984001387047114B9842EF
:10082000C9D10D4BD3F828310120C3F301139840EF
:1008300001387047084BD3F8300100F003007047CF
:10084000054BD3F82031012003F00F039840013805
:10085000704700BFA009140000400E40800616003B
:1008600080162E0090171A0000F00F00013807289C
:1008700013D8DFE800F0141F35122A401204264B6B
:10088000D3F85C3103F03003202B42D0302B3ED024
:10089000102B14BF012007207047002070471E4B0B
:1008A000D3F8943003F00703023B052B2DD81B4AE5
:1008B000D05C7047184BD3F8803003F00703013B3E
:1008C000032B20D8164AD05C7047134BD3F88830DE
:1008D00003F00703013B032B15D8124AD05C704785
:1008E0000D4BD3F8843003F00703013B032B0AD8E8
:1008F0000D4AD05C7047084B1B6F13F0010F0CBF03
:100900000720092070470120704705207047082004
:1009100070470420704700BF00400E408017000061
:1009200088170000881700008C17000008B50146E2
:10093000FFF79AFF1C4B99422ED01C4B994225D0B1
:100940001B4B99421CD0013803282BD8DFE800F05C
:1009500014100602BDE80840FFF796BCFFF73EFC06
:10096000144BD3F80031C3F300630133D84008BD02
:10097000BDE80840FFF78CBCBDE80840FFF780BC2D
:100980000C4BD3F8800000F00700DCE7094BD3F8EC
:10099000880000F00700D6E7064BD3F8840000F08B
:1009A0000700D0E7002008BD030020000500240058
:1009B00002001E0000400E4000F47813B3F5B01F93
:1009C00010B500F08C8029D8B3F5402F00F091804D
:1009D00019D9B3F5801F13D0B3F5A01F09D156481C
:1009E000FFF7A4FF554BD3F8303103F00303D84091
:1009F00010BDB3F5602F66D1504B1B6FDB0709D4D8
:100A00004F4B186810BDB3F5802F7DD01BD9B3F5BF
:100A1000202F58D1BDE81040FFF7E0BBB3F5101F01
:100A200053D02DD9B3F5481F42D0B3F5781F1AD152
:100A30000446FFF7D3FB01462046FFF7ADFE013029
:100A4000B1FBF0F010BD002BE4D0B3F5003F3AD17C
:100A5000FFF7C4FB394BD3F80831C3F30823013344
:100A6000B0FBF3F010BDB3F5381F2CD13548FFF7BC
:100A70005DFF324BD3F82031C3F30113D84010BDD2
:100A8000B3F5F01F26D0B3F5001F04D1BDE8104028
:100A90002D48FFF74BBFB3F5D01F14D12A48FFF7FD
:100AA00045FF264BD3F82831C3F30113D84010BDBE
:100AB000224CD4F85C3103F03003202B2FD0302BA4
:100AC00031D0102B9CD0002010BDBDE810401A483A
:100AD000FFF72CBFBDE810401A48FFF727BF1948A1
:100AE000FFF724FF154BD3F8203103F00F03D84054
:100AF00010BDFFF773FB114BD3F81431C3F304237C
:100B00000133B0FBF3F010BDFFF768FB0B4BD3F8DC
:100B10000C31C3F308230133B0FBF3F010BDBDE883
:100B20001040FFF799BBFFF759FBD4F80031C3F32E
:100B3000042303FB000010BD0500240000400E400C
:100B40001000002002001E000300200004281BD813
:100B5000F8B54B4C4B4B54F8205053F82040A1B9FA
:100B6000494B53F82030494801210366A140D0F891
:100B700090300B42FBD132B101224449AA40D1F856
:100B800090301342FBD1F8BD7047414B022853F817
:100B9000206058D000213F4B23444FEA830C3B4B4D
:100BA0001E66DCF80030002BFBD0002AEBD0394C5D
:100BB0002C44A4002368002BFCD00228E3D1002998
:100BC000E1D0324A536ADB074ED54FF480612023CF
:100BD000C2F8A8105366536AC3F30113002B0BBF6E
:100BE0004FF4800000204FF440014FF40001D2F890
:100BF000903031EA0303FAD100283DD1234D012280
:100C000000210220D5F89C60FFF7A0FFD5F89030B6
:100C10006A6A22F03002C6F30A0642F010026A62E3
:100C2000F309DA1C296B1C4B0F2A03EA010328BFC6
:100C30000F22334343EA027304222B632A6623689C
:100C4000002BFCD0F8BD114B5F6A17F0300FA1D11B
:100C5000124FFF6B5F6AFF079DD55F6A27F0300771
:100C600047F010075F6296E7536AD2F8903003F4BA
:100C70004003B3F5400FF8D1D2F8A030BEE700BF73
:100C800090170000A4170000CC17000000400E4091
:100C9000B81700008004F21000F8FF0F00300E407B
:100CA0001128F8B50C460DD000F00F0001380728C8
:100CB00007D8DFE800F00C6664063F5B06290023D6
:100CC0002B60F8BD042900F0858005295BD0002544
:100CD000023C0A2CF5D801A353F824F0450F00007C
:100CE0003F0F00006F0E0000270F0000C30C000034
:100CF000C30C0000C30C0000C30C0000C30C0000B8
:100D00004F0F00004B0F00004C1E072CD9D801A339
:100D100053F824F0490E0000C30C0000C30C00007F
:100D20002B0E0000C30C0000C30C0000510E00008D
:100D30004D0E0000904D013C092CC2D801A353F880
:100D400024F000BFBF0C0000050E0000E70D0000FE
:100D5000C30C0000C30C00009B0D0000C30C00007E
:100D6000C30C0000C30C0000E30D0000072900F0D5
:100D7000F4800929A5D1814B01221A67F8BD804D65
:100D8000D9E7804DD7E7804A804B15689D429ED9B0
:100D90000021284600F078FA9AE7FFF71FFA7C4B0B
:100DA00098423FD97B4B0121984294BF4FF080700D
:100DB0004FF00070784B714A1964D2F800317749CE
:100DC00023F0807318430123C2F80001C1F80036F4
:100DD000032375E7FFF740FA054600283FF477AF95
:100DE000D6E704236CE7654B6C4A40211966D2F8BC
:100DF0001832002BFBD0694AD2F81C32002BFBD0F2
:100E000001235DE75D4B654A4FF480711966D2F8A6
:100E10002032002BFBD0614AD2F82432002BFBD0C9
:100E200002234DE700200146C4E7012211460220BB
:100E3000FFF78CFE2021514AD2F85C3123F03003B9
:100E40000B43C2F85C31F8BD0021F4E73021F2E732
:100E50004A4B524A10211966D2F81032002BFBD0AF
:100E60004E4AD2F81432002BFBD01021E3E74A4B54
:100E7000424A01211964D2F80031022043F0807304
:100E8000C2F80031064601221146FFF75FFE444CCE
:100E900041F67133276C2364FFF79CF90021FFF7BB
:100EA00063FB0FB100232364002D5AD1334B5E67DF
:100EB000FFF7C0F90446FFF791F9354A904249D946
:100EC000344A0121904294BF4FF080734FF0007379
:100ED000314A11642949D1F8002122F0807213436C
:100EE000304AC1F80031D36B5B0604D42E4AD2F8E5
:100EF000C830002BFBD12B4B294E5968376C41F67B
:100F00007133C1F3014120463364FFF72DFB0FB16C
:100F100000233364002D7FF4D4AE28460121BDE8C0
:100F2000F84000F0B1B91C4B144A01261E64D2F8F7
:100F3000003143F080730320C2F80031A3E70120A1
:100F40000326A0E7002004269DE707269FE703204D
:100F5000052698E700231946BAE7084B00221A67CE
:100F6000F8BD104BDB6B5A06A0D40F4AD2F8C8303C
:100F7000002BFBD19AE700BF88400E4000400E4096
:100F800084400E4080400E4008000020002D3101BA
:100F90000048E8010090D0030000C8430010C84397
:100FA00000000E4000300E400000C643EFF31080FA
:100FB00072B6704700B962B6704700BFEFF3108099
:100FC00072B6704700B962B6704700BF0E4BDA6B5D
:100FD000520618D4DB6B5B0604D40C4AD2F8C83036
:100FE000002BFBD1084B19685A68C1F30121C2F3E9
:100FF000014291421A6803D942F010021A60704708
:1010000022F010021A60704700300E400000C64304
:101010002E4BDA6B520670B506D42D490978102292
:10102000C1F102018A401A612A4B2B4DD3F880414D
:1010300045F60E02C3F88021296840F255120A4095
:1010400022491A66CB6B5E0604F0010404D4234ADD
:10105000D2F8C830002BFBD11C4B1B68D80617D523
:101060001C4AD2F84031D901FBD41D4B1D4E1B68E0
:1010700013613178052916D01120FFF711FE2B6876
:10108000DB070CD51CB1134B0022C3F8802170BDC7
:10109000144E31780529EFD12B68DB07F2D40D4BC4
:1010A00002221A66EEE7094B0F4ADB6B10685A06FC
:1010B00004D40A4AD2F8C830002BFBD1034B59683C
:1010C000C1F30141FFF77EFAE3E700BF00300E40B5
:1010D000BD00002000400E40B00000200000C643CC
:1010E000B8000020B4000020080000200F4A08B516
:1010F0000F4BD2F890201A601120FFF7B5FB0D4A74
:101100000D4B1070DB6B5B0604D40C4AD2F8C83070
:10111000002BFBD1084B0A485B680449094AC3F31A
:10112000014303700B69136008BD00BF00400E400F
:10113000B0000020B400002000300E400000C64384
:10114000BD000020B8000020704700BF704700BFFE
:10115000704700BF704700BF10B5044600283AD161
:10116000FFF734FF1F4A136943F004031361FFF7CD
:10117000EBFFFFF7EBFF1C4B1B68DA0624D430BFF4
:10118000FFF7E8FFFFF7E4FF4CB1FFF741FF164A16
:10119000D2F84C3123F00043C2F84C3110BD124B51
:1011A0001B68DB0605D5114B1B69C3F30443082BF1
:1011B00014D00D4AD2F84C3123F00043BDE8104062
:1011C000C2F84C31FFF736B8FFF7F0FE00F0D4FA62
:1011D000FFF7F0FED4E7FFF789FFC1E7044B054AAC
:1011E0001A60E6E700ED00E000300E4000400E40DF
:1011F00008000020C0EA2101F8B5204BDA6B540644
:101200001ED4DB6B0D465906044604D41C4AD2F8A2
:10121000C830002BFBD1194E7368C3F301439C42C5
:101220000ED0184BD3F80031FEF7D8FF022C07463A
:1012300018D0C4F102021023934033613DB904B1C8
:10124000F8BD21463846BDE8F840FFF7BBB9F36B5F
:101250005A06F4D40A4AD2F8C830002BFBD1002C2D
:10126000EED1EEE72146FFF7ADF910233361002DF3
:10127000E6D0F36B5B06EDD5F8BD00BF00300E4045
:101280000000C64300400E40164BDB6B5B0609D4E2
:1012900048B1154B1B7813B1144B98421CD9002050
:1012A000FFF7AABF704710B5114B82B0D3F80041C9
:1012B0000191FEF793FF0C4B01991B78C4F30424B2
:1012C00004FB000013B1094B984208D9002002B07A
:1012D000BDE81040FFF790BF0220FFF78DBF02204E
:1012E000F5E700BF00300E40BC000020002D3101AA
:1012F00000400E4038B5044601214FF48A40FFF704
:10130000FDF9B4F8013021780D4A5BBA9BB243EA8B
:10131000016313600B4900204FF0004310624FF44B
:101320000075D0625063D3664FF0FF339366C1F807
:101330008051E3785B01DBB281F809330D6038BD81
:1013400000200E4000E100E0F8B5C3B201259D4049
:10135000CB7A0F68224E0C46897A1B0543EA01437B
:1013600000EB4000217B06EB001043EA415322F0E2
:101370000302617BB566C0F88070C0F88810C0F8C1
:101380008430C0F89820FFF719FEF36E2B43F36604
:10139000237A13B1736B2B437363637A1BB1104AC7
:1013A000D36A2B43D3620E4A2379126823B1DB43FD
:1013B0001B0263F47F431A4063790BB142EA0322B4
:1013C000A3790BB122EA0302E37905491A43054BDD
:1013D0000A609D62CD63BDE8F840FFF7F3BD00BF32
:1013E00000200E4000200E4421B1012901D14261AC
:1013F000704770470261704710B40C7814B9836865
:10140000DA072BD44A788B78002A0CBF00224FF4DD
:1014100080524BBBCB686BBBCB780BB142F4807274
:101420000B790BB142F040024B790BB142F08002D4
:10143000CB7991F806C0097A1B0143EA8C030B4370
:10144000134303603CB18368DA0704D4436B9B0702
:10145000FCD4012343605DF8044B7047436B9B074A
:10146000FCD402234360CDE7CB6842F40072002B2A
:10147000D2D001E042F400720361CDE721B101292D
:1014800001D1C26170477047826170470A4347F6D5
:10149000077304491A40143042F0804241F820207A
:1014A000704700BF00600E40014B01229A667047F2
:1014B00000200E4070B5012284B011461046FFF79F
:1014C00045FB1D4E1D481E4D0121FFF717F91D4814
:1014D0000321FFF7E5FB30460121FFF70FF94FF03D
:1014E000011300246946009328460223CDE90144F4
:1014F00003948DF80630FFF77FFF2146012228462E
:10150000FFF7BCFF3046FFF757FA0F4AA2FB003245
:101510000E4B9209284621461A60FFF765FF01210C
:101520004FF45450FFF7EAF822464FF4606120462A
:10153000FFF7ACFF04B070BD8006160030053E001A
:101540000060044002001E00D34D6210F000002035
:1015500030B5012183B04FF48A40FFF7CFF8144B28
:10156000144D1B68019301A8FFF7C4FE124A1349EA
:10157000134C156000204FF0030CD06082F80CC0B3
:101580006FF06E0C4FF40023546082F802C0C1E982
:1015900002000C4C48600B609460FFF7D5FE0A4BCC
:1015A0004FF40072C3F880211A6003B030BD00BF51
:1015B000081800007000100BE0000020F40000206C
:1015C00048200040C000002000E100E070B586B077
:1015D0001F2300248DF806302B480494FF2301219B
:1015E0008DF811308DF804408DF805408DF80740D6
:1015F0008DF808408DF8094003940594FFF77EF8B4
:1016000001212248224DFFF779F8224B1022C3F81E
:101610005C212846FEF7EAFFFEF7E2FFFEF78CFFAB
:101620008DF80600FEF7DCFF01462846FEF762FF54
:10163000194D8DF8070080238DF809308B23012682
:1016400001A928468DF8103003238DF80D308DF850
:1016500016608DF812408DF80E608DF80F408DF8F1
:101660000C408DF81360FEF78FFE03A92846FEF7A5
:10167000E9FE6B6923F4405343F480536B61C5F872
:101680008C6006B070BD00BF4041050000920400B0
:1016900000093D0000400E400020004008B50C4B02
:1016A0000C4901225A641A6842F480721A60D1F817
:1016B000A43143F4F843C1F8A431FFF787FFFFF7E3
:1016C00047FFFFF7F7FE0020FFF746FDFBE700BFEF
:1016D00000000E4000300E4008B5074B044613B121
:1016E0000021AFF30080054B1868836A03B1984767
:1016F000204600F031F800BF000000000C18000088
:1017000070B50D4D0D4C641BA4100026A64209D1E6
:101710000B4D0C4C00F022F8641BA4100026A642CE
:1017200005D170BD55F8043B98470136EEE755F8F2
:10173000043B98470136F2E78C0000208C00002023
:101740008C0000209000002002440346934200D108
:10175000704703F8011BF9E7FEE700BFF8B500BFCB
:10176000F8BC08BC9E467047F8B500BFF8BC08BC82
:101770009E467047000000005FF800F075000020F2
:101780000403020B050C00000302010A0302060A0F
:101790000900000007000000030000000100000035
:1017A0000500000008000000060000000200000024
:1017B00000000000040000000001000040000000E4
:1017C0000400000001000000100000000002000002
:1017D000800000000800000002000000200000005F
:1017E00040787D0100000000005A62020001000004
:1017F000C0CF6A0002000000809FD50002010000F7
:10180000002D310102020000070000031400002037
:0418100000000000D4
:0818140014E9FF7F0100000050
:10181C00C0EA210100F04902C0EA21010080000069
:10182C00C0EA2101000000000000000000000000E0
:10183C00000000000000000000000000000000009C
:10184C00000000000000000000000000000000008C
:10185C00000000000000000000000000000000007C
:10186C00000000000000000000000000000000006C
:10187C00000000000000000000000000000000005C
:10188C0000000000044AD2F84C3143F0004330BF52
:10189C00C2F84C31704700BF00300E400D01000003
:0418AC00E90000004F
:04000003000001A553
:00000001FF
