S00C0000656D7074792E733337B9
S113000000100020B1040000AD040000AD040000A5
S1130010AD040000AD040000AD040000AD04000018
S1130020AD040000AD040000AD040000AD04000008
S1130030AD040000AD040000AD040000AD040000F8
S1130040AD040000AD040000AD040000AD040000E8
S1130050AD040000AD040000AD040000AD040000D8
S1130060AD040000A5010000AD040000AD040000D3
S1130070AD040000AD040000AD040000AD040000B8
S1130080AD040000AD040000AD040000AD040000A8
S1130090AD040000AD040000AD040000AD04000098
S11300A0AD040000AD040000AD040000AD04000088
S11300B0AD040000AD040000AD040000AD04000078
S11300C0AD040000AD040000AD040000AD04000068
S11300D0AD040000AD040000AD040000AD04000058
S11300E0AD040000AD04000010B5054C237833B90D
S11300F0044B13B10448AFF300800123237010BDF7
S11301007C100020000000003023000008B5034BE1
S11301101BB103490348AFF3008008BD0000000091
S11301208010002030230000A3F5803A704700BF00
S1130130174B002B08BF134B9D46FFF7F5FF00211B
S11301408B460F461348144A121A01F003FF0E4B54
S1130150002B00D098470D4B002B00D0984700206F
S1130160002104000D000D48002802D00C48AFF314
S1130170008001F0CBFE2000290000F065F901F0B9
S1130180B1FE00BF000008000000000000000000F5
S1130190001000207C100020E0100020000000006F
S11301A000000000024A01239366024A137070475C
S11301B000200E40DC10002030B5012285B011462D
S11301C0104600F0D9FF1E4D1E481F4C012100F0BF
S11301D0A7FC1E48032101F061F82846012100F024
S11301E09FFC10220021684601F0B4FE4FF0011379
S11301F000936946022320468DF8063001F08AFBFD
S113020001220021204601F0CDFB284600F00AFE21
S11302100F4B00214FF47A52B0FBF2F220461A60E1
S113022001F05CFB01214FF4545000F079FC0022F2
S11302304FF46061104601F057FD05B030BD00BFBA
S11302408006160030053E000060044002001E00D7
S1130250C810002037B501214FF48A4000F060FC3B
S1130260154B164D1868019001A801F06FFA4FF470
S113027000232B60124B0024214618461022C5E9A6
S11302800144EC6001F066FE0E490F4AC0E9001219
S11302900E4A8260032202736FF06E028270294656
S11302A00246204601F094FA094B4FF40072C3F859
S11302B080211A6003B030BD801F0000CC100020E4
S11302C0B81000207000100B482000409810002047
S11302D000E100E030B587B01F2300248DF806301C
S11302E02B488DF80440FF230121CDE903448DF808
S11302F005408DF811308DF807408DF808408DF8D1
S11303000940059400F00CFC01212248224D00F024
S113031007FC224B1022C3F85C21284600F074FB32
S113032000F06CFB00F0B4FA8DF8060000F066FBF8
S11303300146284600F014FA8DF812408DF80F405B
S11303408DF80C408023164C8DF8093027230125A5
S11303508DF807008DF8103001A9032320468DF88D
S11303600D308DF816508DF80E508DF8135000F0A6
S113037017FA03A9204600F083F9636923F4405374
S113038043F480536361C4F88C5007B030BD00BFA0
S1130390404105000092040000093D0000400E4069
S11303A00020004030B5124D0FCD89B001AC0FC410
S11303B095E8070084E807000E480F4C012100F07F
S11303C0AFFB0E48012100F0ABFB01230422062100
S11303D0022001F065F901A9204601F02DFD40F647
S11303E00B33A367636F43F00303636709B030BD46
S11303F0841F0000004204000004014000250A009C
S113040030B50E4D0FCD91B06C460FC40FCD0FC457
S11304100FCD0FC495E80F0084E80F004FF4C023FC
S1130420039385238DF802300548064B01936A46F1
S1130430002101F0FDFA11B030BD00BFA01F000083
S1130440008000400400330008B5134B1348144CDB
S1130450144D012159641A6842F480721A60124AD8
S1130460D2F8A43143F4F843C2F8A43100F058FBA5
S1130470FFF730FFFFF7C4FFFFF794FFFFF7EAFE33
S1130480FFF79AFE2378002BFCD06121284601F067
S113049023FD00232370F5E700000E4000A20400B2
S11304A0DC1000200004014000300E40FEE7000094
S11304B008B500F059F8064B0649074A8B4201D3A8
S11304C0FFF736FE52F8040B43F8040BF6E700BFBF
S11304D0001000207C1000203823000000487047E2
S11304E000F04902104AD2F8943003F00703023BAB
S11304F0032B13D8DFE803F00C14020E0B4B1B681C
S1130500D2F80001C0F304200130B3FBF0F07047CF
S1130510074BF4E7074B1B685B08F1E7054BEEE775
S11305204FF40043ECE700BF00400E400C100020E5
S1130530041000200810002008B5FFF7D3FF054B76
S1130540D3F80831C3F308230133B0FBF3F0024BB3
S1130550186008BD00400E4000100020014B1868D0
S1130560704700BF04100020044B054A9A60D3F87A
S1130570882042F47002C3F88820704700ED00E040
S1130580000000004FF4004070474FF47A70704749
S1130590014B1868704700BF0C100020344B002A30
S11305A070B5344D446B08BF1D46334B14BF102641
S11305B00026984232D1062907D8062907D8DFE851
S11305C001F00817472E06063F00812940D000237A
S11305D01FE02A49D1F81032D1F8102203F4FE4367
S11305E002F00F021A43D1F8103203F0F0030FE0C7
S11305F0224AD2F81032D2F81012D2F810221B0C70
S1130600120C02F0F00203F4FE431343C1F303425D
S11306101343194AB3402C402343536370BD174B13
S1130620D3F81422D3F81412D3F81432120C1B0C7E
S113063003F0F00302F4FE421A43C1F30343E7E775
S11306400E4BD3F81822D3F8183202F00F02CCE77D
S11306500A4AD2F81432D2F81412D2F8142203F44B
S1130660FE4301F00F010B4302F0F002D0E700BF9C
S11306700080FFFFFFFF0080002000400080E00FAB
S113068038B5354B984205460C4604D033484FF4F0
S1130690547100F013F90223AB60A17800222846BC
S11306A0FFF77CFF207961786279030243EA0163F2
S11306B043EA0243E27843EAC203E2790AB143F02F
S11306C00053227A0AB143F00403A2790AB143F039
S11306D00203627A0AB143F00103F328A27806D137
S11306E02AB903299CBF23F0706343F0806351B29D
S11306F00029ACBF43EA421343F0E0032B616B696A
S1130700002923F4F21323F00703BCBF22F0800274
S11307101343227843EA4243E27A0AB143F4804322
S11307206B616B0103F18443A27A9A60EB6FD5F895
S113073080201A4204D009484FF46E7100F0BEF8CC
S1130740EB6813F4406F06D0BDE83840034840F22C
S1130750B93100F0B3B838BD00200040E01F0000FC
S1130760B0F5FA4F10B50C4C38BF4FF4FA40844240
S113077028BF044619B9094800F054FB0146601E1D
S11307800144A142B1FBF4F028BF00F1FF307F28FF
S113079028BF7F20C0B210BD0024F40040410500F2
S11307A070B5364BCC78984205460E4604D0344892
S11307B04FF4BD7100F082F8002C3CD12146314841
S11307C0FFF7CEFF04460A23AB603278737843EA1E
S11307D00263B278120402F4FE022402134304F406
S11307E0FE441C4333790BB144F010042C6074793B
S11307F000F05EFE2B685C4004F0C0045C402C609A
S113080000F05AFE2B681B0637D51F4800F00AFB80
S11308101A4B9D42044629D11C4800F003FB04EB0B
S11308204404B0EB540F28D2BDE8704014484FF490
S1130830DC7100F043B8296811F08001C3D111487C
S1130840FFF78EFFA04204D90D4840F2851100F055
S113085035F800214FF4FA40FFF782FFA042B2D2EC
S113086007484FF4C37100F029F8ACE704484FF48B
S1130870DB7100F023F80020D1E770BD00200040B8
S1130880E01F00000024F400B800320000920400CD
S113089008B528B9074800F0C5FA012838BF012077
S11308A000F57420044B00F23F20B0FBF3F0013854
S11308B0C0B208BD4041050040420F00FEE7000001
S11308C00C4B984210D90C4B984210D902220123A8
S11308D00A490B640A49D1F8003123F0807343EAD2
S11308E00263C1F80031704700221346F0E7012289
S11308F0FBE700BF0048E8010090D0030000C843B4
S113090000400E4038B5114B5B68114B00221C4669
S1130910C9B21D798D4202D11D68854212D20132BD
S1130920052A03F10803F4D10A4841F23851FFF7CC
S1130930C5FF032205494B6823F0407343EA026371
S11309404B6038BD04EBC2025279F3E700000E405D
S1130950D82000000F2000001F2810B5044604D939
S1130960034840F24311FFF7A9FF0120A04010BD46
S11309703E20000038B5074C41F67133256C2364E2
S1130980FFF7ACFD0021FFF7BDFF0DB10023236489
S113099038BD00BF00000E40044BDB6B5B0604D483
S11309A0034AD2F8C830002BFBD1704700300E4008
S11309B00000C64308B5FFF7EFFF024B5868C0F3C9
S11309C0014008BD00300E40044BD3F84421D20747
S11309D003D4D3F840211042FBD1704700400E40AD
S11309E038B5054C41F67133256C2364FFF78AFF53
S11309F00DB10023236438BD00000E40014B18687C
S1130A00704700BF1010002038B5384B9842054697
S1130A1057D01CD8A3F5B703A3F5586398424CD01C
S1130A200ED8334B984244D008D8324B98421ED04B
S1130A30314B98421BD0314B984218D0002419E016
S1130A402F4B9842FAD12F4BD3F8AC4112E02E4BE6
S1130A5098423AD02D4B98423BD0A3F53703A3F5E7
S1130A60D8539842EAD1274BD3F8B84102E0254B3A
S1130A70D3F89041631E033304D9254841F2E7714A
S1130A80FFF71CFF234B244A1D60D2F86438002B67
S1130A90FBD1184B9D4220D0174B9D4222D0174BBF
S1130AA09D4203D124F0C06444F080641B4B9C61DC
S1130AB038BD144BD3F89C41DCE7124BD3F8A84162
S1130AC0D8E7104BD3F8B041D4E70E4BD3F8BC4170
S1130AD0D0E70C4BD3F8C041CCE724F0C06444F019
S1130AE00074E3E724F0C064E0E700BFC0EA21013A
S1130AF0C0CF6A0080841E0000093D0040420F0000
S1130B000024F4000081E00F0048E80180D543028E
S1130B100F200000101000200020C84300400E40A9
S1130B2038B5C0F30323013B092B24D8DFE803F0D5
S1130B302A2D2323051619231C20154C0023C0F34A
S1130B40043513B11846FFF73FFF04F1424404F59E
S1130B50801405EBC404A400216038BD0D4C0123AE
S1130B60EDE70D4C1023EAE70C4C4FF48033E6E735
S1130B700B4C0023E3E7BDE838400A4841F6D52191
S1130B80FFF79CBE084C0023D9E7084C0023D6E7A6
S1130B90B0400E40E0400E40E8400E40F0400E40B1
S1130BA050410E400F20000000400E40C0400E4057
S1130BB008B5C0F30313013B092B53D8DFE803F056
S1130BC0050B0F1952521F233C46284BD3F8000142
S1130BD0C0F3042008BD254BD3F81401F8E7234BD8
S1130BE0D3F80001C0F300600130FFF7B5FE01380F
S1130BF0F0E71E4BD3F80C01C0F30820EAE71B4BC7
S1130C00D3F80801F8E71A4B984209D0194B9842D7
S1130C100CD041F679411848FFF750FE0020D9E77F
S1130C20124BD3F8200100F00F00DEE70F4BD3F88E
S1130C302001C0F30110D8E7104B984203D10B4BAD
S1130C40D3F82801F5E741F69D41E4E70C4B9842BF
S1130C5005D1064BD3F8300100F00300BAE741F6A2
S1130C60AC41D8E741F6D141D5E700BF00400E4082
S1130C708006160080162E000F20000090171A0020
S1130C80A009140008B5FFF793FF013008BD000068
S1130C9000F00F00013808B5072844D8DFE800F059
S1130CA0040F1943232D4335264BD3F8943003F016
S1130CB00703023B052B3DD8234AD05C08BD214BDA
S1130CC0D3F8803003F00703013B032B34D81F4AC9
S1130CD0F3E71C4BD3F8843003F00703013B032BE9
S1130CE02AD81B4AE9E7174BD3F8883003F00703E7
S1130CF0013B032B20D8174ADFE7124B1B6F13F07D
S1130D00010F0CBF07200920D8E70E4BD3F85C3144
S1130D1003F03003202B11D0302B11D0102B14BF33
S1130D2001200720CAE70C4842F22501FFF7C6FD5F
S1130D300020C3E70520C1E70120BFE70420BDE789
S1130D400820BBE700400E40AB200000B1200000AB
S1130D50B5200000B12000000F20000038B52C4B56
S1130D60984205460AD02B4B984207D02A4B98420A
S1130D7004D02A4841F23861FFF7A0FD2846FFF766
S1130D8087FF234B9D42044611D0224B9D4212D033
S1130D90214B9D4213D1224BD3F8804004F0070429
S1130DA0042C2DD8DFE804F02A11151D19001C4B62
S1130DB0D3F88440F2E71A4BD3F88840EEE717489B
S1130DC041F26761FFF77AFDEAE7BDE83840FFF7D3
S1130DD0D9BBBDE83840FFF7DBBBBDE83840FFF7BF
S1130DE0D4BBFFF77FFB0E4B0446D3F80001C0F3DE
S1130DF000600130FFF7B0FDB4FBF0F4204638BDCD
S1130E00064841F2B961FFF759FD0024F6E700BF37
S1130E10030020000500240002001E000F20000033
S1130E2000400E4038B500F47813B3F5B01F054602
S1130E3000F081802ED8B3F5402F65D011D8B3F5DA
S1130E40802F50D006D843B1B3F5003F56D041F6B9
S1130E5005411AE0B3F5202FF9D1BDE83840FFF77A
S1130E6041BBB3F5801F00F09180B3F5A01F58D0AB
S1130E70B3F5602FEBD15348FFF70AFF072800F0C2
S1130E8085800928E9D041F2FA314F48FFF716FD71
S1130E90002032E0B3F5101F5DD012D8B3F5F01F77
S1130EA03AD0B3F5001F54D0B3F5D01FCFD1474883
S1130EB0FFF754FF464B0446D3F82801C0F3011052
S1130EC042E0B3F5481F48D0B3F5781F72D0B3F5AC
S1130ED0381FBCD13F48FFF741FF3D4BD3F82031C9
S1130EE0C3F3011325E0FFF7FDFA394BD3F80C31B6
S1130EF0C3F308230133B0FBF3F038BDFFF7F2FA74
S1130F00334BD3F80831F3E7FFF7ECFA304BD3F85F
S1130F101431C3F30423EDE72E48BDE83840FFF74E
S1130F201DBF2D48FFF71AFF294BD3F8303103F0CA
S1130F300303D840E1E72748FFF710FF244B04469A
S1130F40D3F8200100F00F00FFF706FDB4FBF0F02A
S1130F50D3E71E48E1E72048DFE72048FFF798FE83
S1130F600138072823D801A353F820F0910E00007C
S1130F70AF0F0000AF0F0000930F0000AF0F000091
S1130F80AF0F00008D0F00009B0F0000144B18687A
S1130F90B3E7BDE83840FFF7E1BAFFF7A3FA0C4B1B
S1130FA0D3F80031C3F3042303FB0000A5E741F2A7
S1130FB031416AE7FFF796FA04462846FFF762FED6
S1130FC0C4E700BF06000E000F200000030020004D
S1130FD000400E4002001E0005002400B80032004C
S1130FE010100020013838B50C46032864D8DFE817
S1130FF000F002441A2FB1F5007F04D3324842F6C0
S11310002501FFF75BFC314AC4F30804D2F86838C1
S1131010002BFBD12E4A136A23F4FF7323F0010340
S11310202343136238BD7F2904D9274842F632018D
S1131030FFF744FC254A04F07F01D2F86038002B06
S1131040FBD1234B1C6924F07F040C431C61E9E7AA
S11310507F2904D91C4842F64D01FFF72FFC1B4A97
S113106004F07F01D2F86438002BFBD1184B9C6943
S113107024F07F040C439C61D4E7154DD5F89030DF
S11310805B0704D5104842F65D01FFF717FC6B6A55
S113109023F0300343F010036B62C4F3C311CB1C81
S11310A02A6B0C490F2B01EA020128BF0F232143AD
S11310B041EA03712963B5E7BDE83840024842F6C6
S11310C07701FFF7FBBB00BF0F2000000020C843DF
S11310D000400E4000F8FF0F022810B50C4604D063
S11310E0144842F68F01FFF7E9FB134B5B6A13F0D8
S11310F0300F1BD0202C16D0302C17D0B4B10D4893
S113110042F6AA01FFF7DAFB0C4B0B4AD2F8901017
S113111033EA0101FAD15B024ABFD2F8A0000120F0
S1131120C0F3802010BD4FF40003EEE74FF44003FA
S1131130EBE700BF0F20000000400E40FF33E13F0B
S1131140022808B50CD129B1094B4FF48060C3F8CB
S1131150A80059664AB1BDE808400220FFF7BCBFA9
S1131160044842F6E001FFF7A9FB012008BD00BFD7
S113117000400E400F20000004282DE9F0470446EB
S11311800F4691461FD83D4B3D4A13F800A03D4BF6
S113119013F80080F1B93C4B33F810301366012387
S11311A003FA08F8D2F8903013EA080FFAD1B9F12B
S11311B0000F5AD00125324A05FA0AF5D2F89030C8
S11311C02B42FBD151E0BDE8F047304842F2747144
S11311D0FFF774BB2E4B022833F8106047D1536AD3
S11311E013F0300F43D12B4BDB6B5A0504D4274843
S11311F042F28371FFF762FB214A536ADB0705D58C
S1131200536A23F0300343F010035362224D1C4B06
S1131210A8441E664FEA8808D8F80030002BFBD09B
S1131220B9F1000F21D05544AD002B68002BFCD040
S1131230022C1AD1CFB1124F796A11F0010118D0E2
S1131240012220212046FFF77BFFD7F89C40012292
S113125000210220FFF790FFC4F30A010220FFF7E8
S1131260C1FE3E662B68002BFCD0BDE8F08700274A
S1131270CCE72046FFF730FFE7E700BFB9200000C6
S113128000400E40BE200000CE2000000F200000D1
S1131290C420000000300E408004F210112838B53C
S11312A00C460FD000F00F000138072800F2EB8045
S11312B0DFE810F0240066009A00E9007D00B40025
S11312C0E900C200042912D1FFF748F90546A8B184
S11312D00021284600F052F9023C0A2C45D8DFE8E8
S11312E004F04A473137444444443D0F4D00052936
S11312F004D1664B1D68664B9D42E9D80025EBE797
S11313000320052401221146FFF736FFFFF732FBC5
S11313100DB1FFF741FB5F4B5C67FFF70DF9044626
S1131320FFF7E0F8FFF7CCFAFFF744FB014620464D
S1131330FFF756FB002D5DD128460121BDE838405A
S113134000F01CB95448FFF7BBFA02200446D9E761
S11313505148FFF7B5FA01240320D3E742F2E6012E
S1131360BDE838404D48FFF7A9BA42F2EB01F7E770
S113137001200324C6E700200424C3E70724C5E7AB
S1131380062933D14548464D42F22A11FFF796FA11
S1131390424842F23A11FFF791FAFFF7A3F8FFF738
S11313A08FFA404B0122C3F80026032321E00629CB
S11313B03D4DEDD0013C092C2BD801A353F824F06A
S11313C019140000F71300000514000013140000A2
S11313D0131400009B1300001314000013140000E6
S11313E013140000F1130000304DE3E72C4DE1E746
S11313F004232B6038BD012211460020FFF7BCFEF8
S11314000223F6E7012211461046FFF7B5FE012339
S1131410EFE742F26511A3E70023EAE7072904D0C6
S1131420092906D042F2EF119AE71A4B00221A67F3
S1131430E0E7184B0122FAE74C1E072C1ED8DFE820
S113144004F0201D1D161D1D0F0403221149D1F89F
S11314505C3123F0300343EA0213C1F85C31C9E77D
S1131460012211460420FFF787FE0122EEE7012244
S113147011460220FFF780FE0222E7E742F24D21E7
S11314806EE70022E2E742F2243169E70810002007
S1131490002D310100400E400148E8010F200000FA
S11314A080400E400010C84388400E4084400E40E7
S11314B0EFF3108072B6704700B962B67047EFF36D
S11314C01180602383F31188704780F3118870477B
S11314D0034BD86B80F04000C0F38010704700BF0E
S11314E000300E4008B5FFF7F3FF20B1024AD2F8EE
S11314F0C830002BFBD108BD0000C643F8B5044634
S11315000F46FFF7E5FF78B3FFF7ECFF174B5B6877
S1131510C3F301439C4227D0154BD3F80061FEF777
S1131520E1FF022C05460FD1124BC6F3042606FB3D
S113153000069E4204D9104840F21471FFF7BEF928
S113154002212846FFF74CFAC4F10202102393400B
S1131550064A13610FB1FFF7C5FF2CB9214628468F
S1131560BDE8F840FFF73CBAF8BD00BF00300E40BC
S113157000400E40002D31010021000013B5024649
S1131580FFF7A6FFC8B152B90D4B0191D3F8004142
S1131590FEF7A8FFC4F30422019902FB0002094BE1
S11315A01B7843B1084B9A4205D8022002B0BDE82B
S11315B01040FFF7A3BF0020F8E702B010BD00BF42
S11315C000400E40DD100020002D310138B50D46DD
S11315D00446C0B1012818D0022819D003281AD013
S11315E0052803D1FF23EB40DB0704D40B4840F26A
S11315F02B41FFF763F93020094B0121444301FAE1
S113160005F51D5138BD3F23EDE74FF47843EAE774
S11316104FF47C63E7E74FF47E43E4E72F210000B7
S11316200CA0004638B50D460446C0B1012818D0B8
S1131630022819D003281AD0052803D1FF23EB4030
S1131640DB0704D40B484FF47F71FFF737F93020E0
S1131650094B0121444301FA05F51D5138BD3F23CF
S1131660EDE74FF47843EAE74FF47C63E7E74FF4A0
S11316707E43E4E72F2100000CA0004470B505462A
S11316800E461446FFF714FF296881EA040202EAB1
S113169006044C402C60BDE87040FFF70DBF00000D
S11316A0F8B50D4616461F46044668B301282DD0EA
S11316B002282ED003282FD0052803D1FF21E9408A
S11316C0CB0704D41E484FF4B071FFF7F7F826B1E6
S11316D0294620461FB3FFF779FF3023072D04FB6B
S11316E003F34FF00F011DD8A80006FA00F2814061
S11316F014481844FFF7C2FF06BB29462046CFB161
S1131700BDE8F840FFF762BF3F21D8E74FF47841C6
S1131710D5E74FF47C61D2E74FF47E41CFE7FFF782
S113172081FFDAE7A5F10800800006FA00F28140A3
S11317300548DEE7BDE8F840FFF774BFF8BD00BF19
S11317409A21000004A0004008A0004010B50446FF
S113175018B91C489121FFF7B1F823781B0613F040
S1131760784F03D017489221FFF7A8F8E378072BA6
S113177003D91448A321FFF7A1F801214FF48A40AB
S1131780FFF7CEF9B4F8013022785BBA9BB243EA92
S113179002630D4A136000231362D36253634FF054
S11317A00043D3664FF0FF339366084A4FF4007149
S11317B0C2F88011E3785B01DBB282F8093311606F
S11317C010BD00BFCA21000000200E4000E100E06F
S11317D02DE9F041C3B20126072805460C46904680
S11317E006FA03F603DD3A48EC21FFF767F81CB963
S11317F03748ED21FFF762F8236823F47C1323F0C4
S11318000F031BB13248F221FFF758F8A37A1B04E7
S113181013F47C0F04D02E4840F20911FFF74EF860
S1131820E37A1B0513F07E6F04D0294840F20B11B4
S1131830FFF744F8237B5B0513F0FE5F04D02448D4
S113184040F20D11FFF73AF8224F637BBE66302059
S113185000FB05702268C0F88020C0F88830E37A65
S1131860A27A1B0543EA0243227B43EA425328F04F
S11318700302C0F88430C0F89820FFF720FEFB6E06
S11318803343FB66237A13B17B6B33437B63637A05
S113189013B1FB6A3343FB620E4B1A68237923B1FD
S11318A0DB431B0263F47F431A4063790BB142EAC2
S11318B00322A3790BB122EA0302E3791A43054B0D
S11318C01A60054A9662DE63BDE8F041FFF7FDBD8C
S11318D0CA21000000200E4000200E440B4B984209
S11318E070B504460E46154604D1012902D8130CDE
S11318F01B041BB10648D921FEF7E0FF16B1012EE7
S113190002D070BD2561FCE76561FAE70060044020
S11319106422000038B5214B984205460C4604D099
S11319201F484FF4B371FEF7C9FF217839B9AB688A
S1131930DB0704D56B6B9807FCD402236B606378D8
S1131940A078002B08BF0022E36818BF4FF4805230
S113195000B91BB142F4007203B12B61E3780BB1FF
S113196042F4807223790BB142F0400263790BB1E7
S113197042F08002E379A0791B0143EA8003207AD4
S1131980034313432B6039B1AB68DA0704D46B6BA0
S11319909B07FCD401236B6038BD00BF006004408A
S11319A0642200000C4B984270B504460E4615465E
S11319B004D1012902D832F0FF0304D007484FF4C0
S11319C0FD71FEF77BFF16B1012E02D070BDA5613B
S11319D0FCE7E561FAE700BF006004406422000010
S11319E038B5114B984204460D4604D00F4840F2D6
S11319F01311FEF763FF012D06D9BDE838400B48EB
S1131A004FF48A71FEF75ABF236935B943F40033A2
S1131A1023616368DA02FCD438BD43F400232361F4
S1131A2063689B02FCD4F7E7008000409722000023
S1131A302DE9F843974B984206460F46144604D0C6
S1131A40954840F20621FEF739FF012F04D9924848
S1131A5040F20721FEF732FFA36AB3F5806F04D387
S1131A608D484FF40271FEF729FFE36A3F2B04D936
S1131A70894840F20A21FEF721FF236933F4F87301
S1131A8004D085484FF40371FEF718FF237D032B20
S1131A9004D9814840F20D21FEF710FF3946304643
S1131AA0FFF79EFF27B1012F00F0C28000250DE053
S1131AB0237D032BFAD8DFE803F002A0A9B2E27D6C
S1131AC0764B002A00F09680D3F8405294F83130D7
S1131AD063B9636B1F2B04D96F484FF41971FEF778
S1131AE0EDFE636B25F0F84545EA836594F83830DC
S1131AF063B9E36B1F2B04D9674840F26A21FEF7F0
S1131B00DDFEE36B25F0F87545EA0355644B617D12
S1131B1006EB47122B40C2F8B830E568A3682B43A4
S1131B2025882B43A578002914BF4FF48011002188
S1131B302B430B43C2F8B030216963680B43C2F8EE
S1131B40B430237D5A1ED2B2022A9CBF5549895C07
S1131B50D4E90A524FEA471088BF642142EA054299
S1131B60304442EA0122C0F8AC2094F82420658B6A
S1131B70A18B002A94F8252014BF4FF400194FF0CC
S1131B8000092943002A257E226A14BF4FF48018D5
S1131B904FF000081A43002D89B2A57D42EA0102E4
S1131BA014BF4FF4807E4FF0000E42EA0903002D6B
S1131BB094F83050E47D43EA080314BF4FF0100C4E
S1131BC04FF0000C43EA0E03002D14BF0825002536
S1131BD043EA0C03002C14BF042400242B432343A6
S1131BE0C0F8A830002F4FD1336943F480333361F8
S1131BF0BDE8F883D3F8805268E7E27D274B12B141
S1131C00D3F8445262E7D3F884525FE7E27D234B72
S1131C1012B1D3F8485259E7D3F8885256E7E27D17
S1131C201E4B12B1D3F84C5250E7D3F88C524DE707
S1131C30237D032B3FF63AAFDFE803F0020B141DBC
S1131C40E27D164B12B1D3F850523FE7D3F89052CD
S1131C503CE7E27D114B12B1D3F8545236E7D3F886
S1131C60945233E7E27D0D4B12B1D3F858522DE76D
S1131C70D3F898522AE7E27D084B12B1D3F85C52AC
S1131C8024E7D3F89C5221E7012FB1D1336943F4FF
S1131C908023ACE700800040972200000081E00F21
S1131CA0EFEDF67DC822000070B547F607740C4DC1
S1131CB0144000F1140659B90B2804D9094840F21C
S1131CC00921FEF7FBFD44F0804445F8264070BD31
S1131CD00B28FAD9034840F20F21FEF7EFFDF4E791
S1131CE000600E40CB2200000A4392B20021FFF7AD
S1131CF0DBBF00002DE9F04180460E461F46154625
S1131D0022B931484FF4A171FEF7D8FD1EB92F480E
S1131D10FFF788F80646402F2AD009D8A7B1202F0C
S1131D201CD0BDE8F041284840F28911FEF7C6BD39
S1131D30602FF6D1B5EB960F04D9234840F28311F6
S1131D40FEF7BCFD04241DE0B5EB161F04D91E48A4
S1131D504FF4BA71FEF7B2FD102413E0B5EBD60FC1
S1131D6004D9194840F27911FEF7A8FD082409E0C6
S1131D700624B6FBF4F3AB4204D213484FF4BF710C
S1131D80FEF79CFD6C43610801EB4616B6FBF4F4C8
S1131D900F4E203CB6EBC40F4FEAC40504D20A48E8
S1131DA04FF4D071FEF78AFDD8F8003023F06003B9
S1131DB0C8F80030D8F8003035401F43C8F8007028
S1131DC0C8F81450BDE8F081FA2200004041050033
S1131DD0F8FF7F0038B5144B144D9842044606D0E2
S1131DE0A84204D0124840F23441FEF767FD40F6A1
S1131DF0AA63E36041F205020023236062600D4A96
S1131E00A3606361E364A264074A23669442636740
S1131E10A367E36701D0AC4200D123650023AC4241
S1131E20A36508BFE36538BD00000140000401401C
S1131E30FA220000F9FF010038B5254B9842044608
S1131E400D4608D003F58063984204D0214840F23F
S1131E50EF21FEF733FD2046FFF7BCFFAB7C1BB13F
S1131E60236843F080432360EB7C1BB12B7D43F05C
S1131E708003A3652A8A6B7B1343EA891343636057
S1131E802B7BD5E901122046FFF734FF6B7D1BB194
S1131E90236843F480332360AB7D1BB1236843F490
S1131EA000432360EB7D2A7E1B07120502F4E00247
S1131EB003F0E04313432366636F23F03003636747
S1131EC0626F6B7E134363672B78E36038BD00BF9A
S1131ED000000140FA22000003695B06FCD541635F
S1131EE07047000008B5074B044613B10021AFF357
S1131EF00080054B1868836A03B19847204600F0B8
S1131F0031F800BF000000002C23000070B50D4D17
S1131F100D4C641BA4100026A64209D10B4D0C4C99
S1131F2000F022F8641BA4100026A64205D170BD5F
S1131F3055F8043B98470136EEE755F8043B9847BB
S1131F400136F2E774100020741000207410002091
S1131F507810002002440346934200D1704703F8EE
S1131F60011BF9E7FEE700BFF8B500BFF8BC08BCE9
S1131F709E467047F8B500BFF8BC08BC9E46704743
S1131F8007000003050000000000000000C201007B
S1131F900005000000100000000000000000000028
S1131FA000F2F20001000000000000000000020046
S1131FB0000000000200000000000000000000001B
S1131FC0000000000000000003000000000000000A
S1131FD000010000000000000100000000000000FB
S1131FE02E2E2F6765636B6F5F73646B5F342E30C7
S1131FF02E302F706C6174666F726D2F656D6C6915
S1132000622F7372632F656D5F6164632E63002EAC
S11320102E2F6765636B6F5F73646B5F342E302E96
S1132020302F706C6174666F726D2F656D6C6962B0
S11320302F7372632F656D5F636D752E6300433A72
S11320405C55736572735C436F2D6F7020536861C8
S1132050686565657220525C53696D706C6963696B
S1132060747953747564696F5C76355F776F726BDE
S113207073706163655C656D7074795C6765636BCF
S11320806F5F73646B5F342E302E305C706C6174E0
S1132090666F726D5C656D6C69625C696E632F65F9
S11320A06D5F636F6D6D6F6E2E68000403020B0528
S11320B00C0302010A0302060A09070301050806C4
S11320C002000400000140000400010010000002AE
S11320D0800008000200200040787D01000000001C
S11320E0005A620200010000C0CF6A000200000032
S11320F0809FD50002010000002D31010202000082
S11321002E2E2F6765636B6F5F73646B5F342E30A5
S11321102E302F706C6174666F726D2F656D6C69F3
S1132120622F7372632F656D5F656D752E63004357
S11321303A5C55736572735C436F2D6F70205368FE
S113214061686565657220525C53696D706C696382
S113215069747953747564696F5C76355F776F72EF
S11321606B73706163655C656D7074795C676563DE
S11321706B6F5F73646B5F342E302E305C706C61F8
S113218074666F726D5C656D6C69625C696E632FF9
S1132190656D5F6770696F2E68002E2E2F6765630B
S11321A06B6F5F73646B5F342E302E302F706C61F5
S11321B074666F726D2F656D6C69622F7372632F15
S11321C0656D5F6770696F2E63002E2E2F676563E0
S11321D06B6F5F73646B5F342E302E302F706C61C5
S11321E074666F726D2F656D6C69622F7372632FE5
S11321F0656D5F6C646D612E6300433A5C55736575
S113220072735C436F2D6F702053686168656565F8
S11322107220525C53696D706C696369747953748C
S11322207564696F5C76355F776F726B7370616329
S1132230655C656D7074795C6765636B6F5F73640F
S11322406B5F342E302E305C706C6174666F726D0F
S11322505C656D6C69625C696E632F656D5F627548
S1132260732E68002E2E2F6765636B6F5F73646B2C
S11322705F342E302E302F706C6174666F726D2F48
S1132280656D6C69622F7372632F656D5F6C657425
S1132290696D65722E63002E2E2F6765636B6F5F09
S11322A073646B5F342E302E302F706C6174666FE4
S11322B0726D2F656D6C69622F7372632F656D5F2C
S11322C06F70616D702E63005508062E2E2F6765A2
S11322D0636B6F5F73646B5F342E302E302F706CC2
S11322E06174666F726D2F656D6C69622F737263B2
S11322F02F656D5F7072732E63002E2E2F676563DA
S11323006B6F5F73646B5F342E302E302F706C6193
S113231074666F726D2F656D6C69622F7372632FB3
S1132320656D5F75736172742E6300001410002074
S10B2330F8DDFF7F010000004D
S1132338C0EA210100F04902C0EA2101008000003E
S1132348C0EA2101000000000000000000000000B5
S11323580000000000000000000000000000000071
S11323680000000000000000000000000000000061
S11323780000000000000000000000000000000051
S11323880000000000000000000000000000000041
S11323980000000000000000000000000000000031
S10F23A8000000000D010000E90000002E
S90304B147
